:100000000C9434000C94D6010C94B0010C94510063
:100010000C9451000C9451000C9451000C9451001C
:100020000C9451000C9451000C9451000C9451000C
:100030000C9451000C9451000C9451000C945100FC
:100040000C9451000C9451000C9451000C945100EC
:100050000C9451000C9451000C9451000C945100DC
:100060000C9451000C94510011241FBECFEFD4E02A
:10007000DEBFCDBF11E0A0E0B1E0ECEFF3E002C0E5
:1000800005900D92A230B107D9F721E0A2E0B1E0CE
:1000900001C01D92A331B207E1F70E948A000C94BF
:1000A000FC010C9400005E9A289829982A980895DB
:1000B0005E980895E8E0F1E040E050E060E070E034
:1000C000A3E0B0E02898CB014817590711F42A980B
:1000D00001C02A9A299A2998019684309105A1F79E
:1000E000CD0120813181082E02C0359527950A94D3
:1000F000E2F720FD02C02A9801C02A9A299A29987D
:10010000019778F7289A4F5F5F4F32964430510538
:10011000C9F608958AB1837F8AB98BB18C608BB997
:10012000E9E6F0E08081856080838DB383608DBBDC
:100130007894569A8AB1837E8AB95E988BB18C6125
:100140008BB984B1876084B985B185B982E090E0CC
:10015000909309018093080181E090E090930B0156
:1001600080930A0189E090E090930D0180930C0147
:1001700083E090E090930F0180930E01C1E0D0E006
:1001800011E080910601811102C00E945A004C9931
:1001900018C08091040190910501019769F0809148
:1001A0000601882329F0109206010E94580004C01D
:1001B000109306010E945300D0930501C0930401DF
:1001C000E0CF1092050110920401DBCFE82FF0E0A0
:1001D000EE0FFF1FE85FFE4F608311820895E82F46
:1001E000F0E0EE0FFF1FE85FFE4F60817181693024
:1001F000710524F060E00E94E60008956F5F0E94A0
:10020000E6000895CF93DF9369B159B1669566957D
:1002100041E06427262F217030E0E901CC0FDD1F7B
:10022000252F2695269526954227842F817090E0CC
:10023000C82BD92B8091110190911201880F991F21
:10024000880F991F8C2B9D2B8D30910549F08430A0
:10025000910531F08230910519F08B309105D9F478
:1002600080910301813029F4809100018093010184
:100270003DC080910101811108C081E0809303019C
:10028000809100018093010131C080910101815072
:10029000809301012BC08E30910541F0873091058C
:1002A00029F08130910511F00897D9F4809103016C
:1002B000823029F4809100018093010117C0809160
:1002C0000101811108C082E0809303018091000147
:1002D000809301010BC08091010181508093010145
:1002E00005C0D0931201C093110137C08091100155
:1002F000811104C083E0809310012BC08091100114
:10030000833011F5809110018150809310019091FC
:10031000020180910301981791F0809102018823D6
:1003200051F080910701833019F41092070103C046
:100330008F5F809307018091030180930201809178
:1003400007010E94EF0005C0809110018150809349
:100350001001D0931201C0931101DF91CF91089544
:100360001F920F920FB60F9211242F933F934F932A
:100370005F936F937F938F939F93AF93BF93EF930D
:10038000FF930E9402010E945A00FF91EF91BF91DA
:10039000AF919F918F917F916F915F914F913F911D
:1003A0002F910F900FBE0F901F9018951F920F92D4
:1003B0000FB60F9211242F933F934F935F936F9338
:1003C0007F938F939F93AF93BF93EF93FF930E947D
:1003D00002010E945A00FF91EF91BF91AF919F914E
:1003E0008F917F916F915F914F913F912F910F90DE
:0C03F0000FBE0F901F901895F894FFCFDF
:0203FC000303F9
:00000001FF
