:100000000C9434000C94E9010C9417020C945100E8
:100010000C9451000C9451000C9451000C9451001C
:100020000C9451000C9451000C9451000C9451000C
:100030000C9451000C9451000C9451000C945100FC
:100040000C9451000C9451000C9451000C945100EC
:100050000C9451000C9451000C9451000C945100DC
:100060000C9451000C94510011241FBECFEFD4E02A
:10007000DEBFCDBF11E0A0E0B1E0E6E5F6E002C0F2
:1000800005900D92A230B107D9F711E0A2E0B1E0DE
:1000900001C01D92A231B107E1F70E9453000C94F8
:1000A00029030C940000CF93DF93CDB7DEB78AE22B
:1000B00090E02AE230E0F9012081237FFC012083D7
:1000C0008BE290E02BE230E0F90120812C60FC0112
:1000D000208389E690E029E630E0F901208125605F
:1000E000FC0120838DE390E02DE330E0F9012081D5
:1000F0002360FC01208378948AE290E02AE230E0D9
:10010000F90120812064FC0120838AE290E02AE248
:1001100030E0F9012081237EFC0120838BE290E016
:100120002BE230E0F90120812F7BFC0120838BE260
:1001300090E02BE230E0F90120812C61FC0120836A
:1001400084E290E024E230E0F90120812760FC01A4
:10015000208385E290E025E230E0F9012081FC0176
:10016000208382E090E0909308018093070181E072
:1001700090E090930A018093090189E090E09093C8
:100180000C0180930B0183E090E090930E0180932B
:100190000D0180910601882311F40E94350189E246
:1001A00090E0FC018081882F90E080719927009772
:1001B000E1F480910401909105018130910571F085
:1001C00080910601882329F0109206010E942501E2
:1001D00005C081E0809306010E94FA0081E090E072
:1001E0009093050180930401D4CF109205011092E1
:1001F0000401CFCFCF93DF93CDB7DEB78BE290E092
:100200002BE230E0F90120812064FC01208385E2AB
:1002100090E025E230E0F90120812E7FFC0120836F
:1002200085E290E025E230E0F90120812D7FFC019C
:10023000208385E290E025E230E0F90120812B7FE8
:10024000FC012083DF91CF910895CF93DF93CDB749
:10025000DEB78BE290E02BE230E0F90120812F7BCA
:10026000FC012083DF91CF910895CF93DF9300D0DD
:1002700000D0CDB7DEB71A8219829EC085E290E029
:1002800025E230E0F90120812E7FFC0120831C82D1
:100290001B8231C029813A818B819C8128173907C3
:1002A00051F485E290E025E230E0F90120812B7FD6
:1002B000FC01208309C085E290E025E230E0F901ED
:1002C00020812460FC01208385E290E025E230E07B
:1002D000F90120812260FC01208385E290E025E283
:1002E00030E0F90120812D7FFC0120838B819C81EE
:1002F00001969C838B838B819C818430910554F281
:100300001C821B8245C089819A81880F991F895F51
:100310009E4FFC018081918143E050E02B813C8124
:10032000BA01621B730B9B01022E02C09595879543
:100330000A94E2F781709927009751F485E290E0E2
:1003400025E230E0F90120812B7FFC01208309C0E8
:1003500085E290E025E230E0F90120812460FC0193
:10036000208385E290E025E230E0F90120812260DF
:10037000FC01208385E290E025E230E0F901208154
:100380002D7FFC0120838B819C8101969C838B8334
:100390008B819C81843091050CF4B5CF85E290E08F
:1003A00025E230E0F90120812160FC012083898170
:1003B0009A8101969A83898389819A8184309105F3
:1003C0000CF45CCF0F900F900F900F90DF91CF91B6
:1003D00008951F920F9200905F000F9211242F93A7
:1003E0003F934F935F936F937F938F939F93AF93BD
:1003F000BF93EF93FF93CF93DF93CDB7DEB70E9408
:1004000045020E943501DF91CF91FF91EF91BF919D
:10041000AF919F918F917F916F915F914F913F919C
:100420002F910F9000925F000F901F9018951F92D0
:100430000F9200905F000F9211242F933F934F93E0
:100440005F936F937F938F939F93AF93BF93EF933C
:10045000FF93CF93DF93CDB7DEB70E9445020E9492
:100460003501DF91CF91FF91EF91BF91AF919F91B6
:100470008F917F916F915F914F913F912F910F904D
:1004800000925F000F901F901895CF93DF93CDB728
:10049000DEB728970FB6F894DEBF0FBECDBF89E256
:1004A00090E0FC018081882F90E08470992721E002
:1004B000009709F020E0822F90E09A83898389E2F7
:1004C00090E0FC018081882F90E08870992721E0DE
:1004D000009709F020E0822F90E09C838B83898134
:1004E0009A819C01220F331F8B819C81822B932B3D
:1004F0009E838D8380911001909111019C01220FA8
:10050000331F220F331F8D819E81822B932B98875F
:100510008F838F8198858D30910579F08F819885B3
:100520008430910551F08F8198858230910529F0B2
:100530008F8198858B309105D9F4809102018130AB
:1005400029F4809101018093000148C0809100014D
:10055000882341F481E0809302018091010180931E
:1005600000013CC08091000181508093000136C0A1
:100570008F8198858E30910579F08F8198858730AD
:10058000910551F08F8198858130910529F08F81F7
:10059000988588309105D9F480910201823029F440
:1005A000809101018093000119C08091000188238E
:1005B00041F482E080930201809101018093000167
:1005C0000DC08091000181508093000107C08D8192
:1005D0009E81909311018093100132C080910F0190
:1005E000882321F483E080930F0124C080910F01C0
:1005F0008330D9F480910F01815080930F01809155
:10060000070190910801893091052CF010920801A2
:10061000109207010FC08091070190910801019687
:10062000909308018093070105C080910F018150CC
:1006300080930F018D819E81909311018093100111
:1006400028960FB6F894DEBF0FBECDBFDF91CF91D5
:060650000895F894FFCFAD
:0206560003039C
:00000001FF
