:100000000C9463010C9490010C9490010C94900159
:100010000C9490010C9490010C9490010C9490011C
:100020000C9490010C9490010C9490010C9490010C
:100030000C9490010C9490010C9490010C949001FC
:100040000C9490010C9490010C9490010C949001EC
:100050000C9490010C9490010C9490010C947403F6
:100060000C9490010C9490010C9490010C949001CC
:100070000C9490010C9490010C9490010C949001BC
:100080000C9490010C9490010C9490010C949001AC
:100090000C9490010C9490010C9490010C9490019C
:1000A0000C9490010C9490010C9490010C9490018C
:1000B0000C9490010C9490010C9490010C9490017C
:1000C0000C9490010C9490010C9490010C9490016C
:1000D0000C9490010C9490010C9490010C9490015C
:1000E0000C949001000000000000005F0000000779
:1000F000000700147F147F14242A7F2A1223130878
:10010000646236495522500005030000001C22415C
:10011000000041221C00082A1C2A0808083E080882
:100120000050300000080808080800606000002047
:10013000100804023E5149453E00427F40004261A2
:100140005149462141454B311814127F102745452E
:1001500045393C4A49493001710905033649494945
:1001600036064949291E0036360000005636000082
:10017000000814224114141414144122140800021B
:1001800001510906324979413E7E1111117E7F49A4
:100190004949363E414141227F4141221C7F494924
:1001A00049417F090901013E414151327F08080858
:1001B0007F00417F41002040413F017F08142241E0
:1001C0007F404040407F0204027F7F0408107F3E52
:1001D0004141413E7F090909063E4151215E7F09A7
:1001E000192946464949493101017F01013F4040F3
:1001F000403F1F2040201F7F2018207F63140814D9
:10020000630304780403615149454300007F414181
:10021000020408102041417F000004020102044052
:1002200040404040000102040020545454787F486C
:100230004444383844444420384444487F38545473
:100240005418087E090102081454543C7F08040421
:100250007800447D40002040443D00007F10284449
:1002600000417F40007C041804787C08040478383E
:10027000444444387C14141408081414187C7C0872
:100280000404084854545420043F4440203C404057
:10029000207C1C2040201C3C4030403C442810283E
:1002A000440C5050503C4464544C440008364100C7
:1002B00000007F0000004136080008082A1C0808DA
:1002C0001C2A0808380311241FBECFEFD1E2DEBF7D
:1002D000CDBF00E00CBF12E0A0E0B2E0ECE4F8E03B
:1002E00000E00BBF02C007900D92A032B107D9F712
:1002F0001BBE12E0A0E2B2E001C01D92AA32B1071B
:10030000E1F712E0C6ECD2E004C02297FE010E94A1
:100310002004C43CD107C9F70E9465030C949201E4
:100320000C940000F8940C94240488B118B841305F
:1003300069F45D985E9A68B95C9A85E3982F9A95FE
:10034000F1F75C988A95F1F75C9A0895442361F47B
:100350005D985E9868B95C9A85E3982F9A95F1F755
:100360005C988A95F1F75C9A0895605840E00E9485
:1003700095010895FF920F931F93CF93DF93EC01A4
:10038000F42E6330A1F0643028F4613051F0623013
:1003900051F40BC0653079F0653058F0663019F4CF
:1003A0000CC004E10BC000E009C00FE107C000E28F
:1003B00005C009E303C005E401C00EE4102F129547
:1003C0001F70CE0166EB40E00E9495011061CE01E6
:1003D000612F40E00E9495010F70CE01602F40E038
:1003E0000E949501CE016F2D41E00E949501DF91A1
:1003F000CF911F910F91FF900895EF92FF920F936D
:100400001F937C01062F10E0B80184E07595679575
:100410008A95E1F76061C70140E00E9495010F7085
:100420001070C701602F40E00E9495011F910F914D
:10043000FF90EF900895606B40E00E949501089551
:10044000EF92FF920F931F93CF93DF937C01C0E055
:10045000D0E085E0680280011124FE01E00FF11F69
:10046000EC51FF4FE491C7016E2F41E00E949501CE
:100470002196C530D10589F7DF91CF911F910F915A
:10048000FF90EF9008951F93CF93DF93EC01142F0B
:10049000463008F016E0643608F064E6CE010E94AB
:1004A000FD01CE01612F0E941B02DF91CF911F91B0
:1004B0000895262F643140F4463030F465E0269FDD
:1004C000B00111240E944302089560E040E00E94C0
:1004D0005902089560E00E94FD0108951F93CF9393
:1004E000DF93EC0110E0CE01612F40E00E94BA01E1
:1004F0001F5F1730C1F7DF91CF911F9108950895C5
:10050000CF92DF92EF92FF920F931F93CF93DF93DF
:100510007C016B01DB010D900020E9F71197A61B10
:10052000B70B8D01A531B10514F004E110E0C7014E
:1005300060EE40E00E949501C0E0D0E009C0F60105
:10054000EC0FFD1F60816052C7010E9420022196BE
:10055000C017D107A4F3C7016EEE40E00E949501D9
:10056000C7010E946A02DF91CF911F910F91FF9006
:10057000EF90DF90CF9008951F93CF93DF93EC011E
:100580000E94650210E0CE01612F0E941B02CE0185
:1005900060E072E00E9480021F5F1630A1F7DF91D9
:1005A000CF911F910895CF93DF93EC0162EE40E06D
:1005B0000E94950180E197E220E931E0F90131974D
:1005C000F1F70197D9F7CE0161EA40E00E94950169
:1005D000CE0162EA40E00E949501CE016CE240E06B
:1005E0000E949501CE016EE240E00E949501CE018D
:1005F0006FE240E00E949501CE0166EA40E00E9471
:100600009501CE016FE840E00E949501CE0164EAB9
:1006100040E00E949501CE016FEA40E00E94950102
:10062000CE0160E440E00E949501CE010E94BC0230
:10063000DF91CF910895BC018AB180678AB98FEFAD
:1006400087B928EE33E040E951E0FA013197F1F73C
:1006500021503040D1F7CB010E94D30288EE93E0C5
:1006600020E931E0F9013197F1F70197D9F70895C1
:1006700080E292E00E941B0308950F931F9300E213
:1006800012E0C8010E94BC02C8010E946E02C801AB
:1006900060E10E94B501C80160E040E00E9459029B
:1006A000C80165E172E00E948002C80160E041E09B
:1006B0000E945902C80161E40E942002C80162E45C
:1006C0000E9420021F910F910895CF93DF930E9403
:1006D000BC030E943D03C0E0D0E00E947F0220974F
:1006E000E1F30E940000F9CF1F920F920FB60F9214
:1006F00011242F933F938F939F93AF93BF93809138
:10070000250290912602A0912702B09128023091F3
:1007100029020196A11DB11D232F2D5F2D3720F039
:100720002D570196A11DB11D20932902809325020A
:1007300090932602A0932702B09328028091210271
:1007400090912202A0912302B09124020196A11D52
:10075000B11D8093210290932202A0932302B093B3
:100760002402BF91AF919F918F913F912F910F9054
:100770000FBE0F901F901895789484B5826084BD49
:1007800084B5816084BD85B5826085BD85B5816095
:1007900085BDEEE6F0E0808181608083E1E8F0E0F5
:1007A0001082808182608083808181608083E0E824
:1007B000F0E0808181608083E1EBF0E08081846003
:1007C0008083E0EBF0E0808181608083E1E9F0E00C
:1007D000808182608083808181608083E0E9F0E0B5
:1007E000808181608083E1EAF0E0808182608083A3
:1007F000808181608083E0EAF0E080818160808395
:10080000E1E2F1E080818260808380818160808389
:10081000E0E2F1E0808181608083EAE7F0E08081BE
:100820008460808380818260808380818160808316
:100830008081806880831092C1000895EE0FFF1FB1
:0C0840000590F491E02D1994F894FFCF7E
:10084C00202020202020202020202020202020209C
:10085C002020202000536F6D6520546578740000B3
:00000001FF
