:100000000C94F4010C9421020C9421020C94210212
:100010000C9421020C9421020C9421020C942102D4
:100020000C9421020C9421020C9421020C942102C4
:100030000C9421020C9421020C9421020C942102B4
:100040000C9421020C9421020C9421020C942102A4
:100050000C9421020C9421020C9421020C94A4040F
:100060000C9421020C949C060C94E3070C9421023E
:100070000C9421020C9421020C9421020C94210274
:100080000C9421020C9421020C9421020C94210264
:100090000C94DB060C9422080C9421020C9421028F
:1000A0000C9421020C9421020C9421020C94210244
:1000B0000C9421020C9421020C9421020C94210234
:1000C0000C9421020C9421020C9421020C941B0725
:1000D0000C9461080C9421020C945B070C94A0080A
:1000E0000C942102000000000000005F00000007E7
:1000F000000700147F147F14242A7F2A1223130878
:10010000646236495522500005030000001C22415C
:10011000000041221C00082A1C2A0808083E080882
:100120000050300000080808080800606000002047
:10013000100804023E5149453E00427F40004261A2
:100140005149462141454B311814127F102745452E
:1001500045393C4A49493001710905033649494945
:1001600036064949291E0036360000005636000082
:10017000000814224114141414144122140800021B
:1001800001510906324979413E7E1111117E7F49A4
:100190004949363E414141227F4141221C7F494924
:1001A00049417F090901013E414151327F08080858
:1001B0007F00417F41002040413F017F08142241E0
:1001C0007F404040407F0204027F7F0408107F3E52
:1001D0004141413E7F090909063E4151215E7F09A7
:1001E000192946464949493101017F01013F4040F3
:1001F000403F1F2040201F7F2018207F63140814D9
:10020000630304780403615149454300007F414181
:10021000020408102041417F000004020102044052
:1002200040404040000102040020545454787F486C
:100230004444383844444420384444487F38545473
:100240005418087E090102081454543C7F08040421
:100250007800447D40002040443D00007F10284449
:1002600000417F40007C041804787C08040478383E
:10027000444444387C14141408081414187C7C0872
:100280000404084854545420043F4440203C404057
:10029000207C1C2040201C3C4030403C442810283E
:1002A000440C5050503C4464544C440008364100C7
:1002B00000007F0000004136080008082A1C0808DA
:1002C0001C2A080800002100240027002A002D0015
:1002D0003000330001010000040107010A010000A1
:1002E0002200250028002B002E00310034000201DE
:1002F0000000050108010B0100002000230026007A
:1003000029002C002F00320000010000030106012B
:10031000090105050505070508080808020202028B
:100320000A0A080804040404010101010101010191
:100330000303030303030303040707070C0C0C0C5C
:100340000C0C0C0C02020202060606060606060645
:100350000B0B0B0B0B0B0B0B0102102020080810D2
:100360002040102040800201020108040201010225
:1003700004081020408080402010080402018004FE
:100380000201804020100804020108040201010259
:100390000408102040800102040810204080000062
:1003A000090A02080B0C0D070603040100000000F7
:1003B000000000000000000000000000000000003D
:1003C0000000000000000000000011100F000000FD
:1003D000000000000000000000000000000000001D
:1003E00000000000F103100A11241FBECFEFD1E27C
:1003F000DEBFCDBF00E00CBF13E0A0E0B2E0E4E060
:10040000F8E100E00BBF02C007900D92AE3BB107D0
:10041000D9F71BBE16E0AEEBB3E001C01D92A937C1
:10042000B107E1F713E0C8EED3E004C02297FE0164
:100430000E94FC0BC43ED107C9F70E94460B0C94E6
:1004400023020C940000F8940C94000CDC0101C011
:100450006D9341505040E0F7089588B118B841308D
:1004600069F45D985E9A68B95C9A85E3982F9A95CD
:10047000F1F75C988A95F1F75C9A0895442361F44A
:100480005D985E9868B95C9A85E3982F9A95F1F724
:100490005C988A95F1F75C9A0895605840E00E9454
:1004A0002D020895FF920F931F93CF93DF93EC01DA
:1004B000F42E6330A1F0643028F4613051F06230E2
:1004C00051F40BC0653079F0653058F0663019F49E
:1004D0000CC004E10BC000E009C00FE107C000E25E
:1004E00005C009E303C005E401C00EE4102F129516
:1004F0001F70CE0166EB40E00E942D021061CE011C
:10050000612F40E00E942D020F70CE01602F40E06D
:100510000E942D02CE016F2D41E00E942D02DF913D
:10052000CF911F910F91FF900895EF92FF920F933B
:100530001F937C01062F10E0B80184E07595679544
:100540008A95E1F76061C70140E00E942D020F70BB
:100550001070C701602F40E00E942D021F910F9183
:10056000FF90EF900895606B40E00E942D02089587
:10057000EF92FF920F931F93CF93DF937C01C0E024
:10058000D0E085E0680280011124FE01E00FF11F38
:10059000EC51FF4FE491C7016E2F41E00E942D0204
:1005A0002196C530D10589F7DF91CF911F910F9129
:1005B000FF90EF9008951F93CF93DF93EC01142FDA
:1005C000463008F016E0643608F064E6CE010E947A
:1005D0009502CE01612F0E94B302DF91CF911F914E
:1005E0000895262F643140F4463030F465E0269FAC
:1005F000B00111240E94DB02089560E040E00E94F7
:10060000F102089560E00E94950208951F93CF9330
:10061000DF93EC0110E0CE01612F40E00E94520216
:100620001F5F1730C1F7DF91CF911F910895089593
:100630001F9383E196E00E949709182F83E196E0CB
:10064000612F0E94D009812F90E00E94CE0B892B50
:1006500071F48091BF03E82FF0E0E254FD4F108366
:100660008F5F8093BF03803F11F41092BF031F91EF
:100670000895CF92DF92EF92FF920F931F93CF9343
:10068000DF937C016B01DB010D900020E9F71197EE
:10069000A61BB70B8D01A531B10514F004E110E0E4
:1006A000C70160EE40E00E942D02C0E0D0E009C02A
:1006B000F601EC0FFD1F60816052C7010E94B80275
:1006C0002196C017D107A4F3C7016EEE40E00E9447
:1006D0002D02C7010E940203DF91CF911F910F915C
:1006E000FF90EF90DF90CF9008951F93CF93DF930B
:1006F000EC010E94FD0210E0CE01612F0E94B302C6
:10070000CE0160E072E00E9439031F5F1630A1F74E
:10071000DF91CF911F910895CF93DF93EC0162EEAB
:1007200040E00E942D0280E197E220E931E0F901EA
:100730003197F1F70197D9F7CE0161EA40E00E94C5
:100740002D02CE0162EA40E00E942D02CE016CE251
:1007500040E00E942D02CE016EE240E00E942D0298
:10076000CE016FE240E00E942D02CE0166EA40E039
:100770000E942D02CE016FE840E00E942D02CE01C2
:1007800064EA40E00E942D02CE016FEA40E00E9440
:100790002D02CE0160E440E00E942D02CE010E94B5
:1007A0007503DF91CF910895BC018AB180678AB942
:1007B0008FEF87B928EE33E040E951E0FA01319735
:1007C000F1F721503040D1F7CB010E948C0388EE25
:1007D00093E020E931E0F9013197F1F70197D9F77A
:1007E00008958EEB93E00E94D4030895CF92DF9298
:1007F000EF92FF920F931F93CF93DF93182F092F40
:100800000E94EC049B01AC012093C0033093C10310
:100810004093C2035093C3038091C4039091C503D6
:10082000A091C603B091C70369017A01C81AD90A19
:10083000EA0AFB0AD701C6014497A105B1051CF4D9
:1008400020E030E028C02093C4033093C5034093D8
:10085000C6035093C703812F902F9C01E90100E04C
:1008600015C08EEB93E0612F402F0E94F102F7013B
:1008700061917F0160528EEB93E00E94B8021F5F8E
:10088000143179F764960F5F063019F07E0110E09D
:10089000E8CF21E030E0C901DF91CF911F910F91A6
:1008A000FF90EF90DF90CF90089583E196E040E0D5
:1008B00052EC61E070E00E94DF0883E196E06AE3B9
:1008C00072E00E94BB0B81EF95E040E855E260E0EA
:1008D00070E00E94DF088CE060E00E94B5058CE0CB
:1008E00061E00E9468068EEB93E00E9475038EEB38
:1008F00093E00E9406038EEB93E060E10E944D02BC
:100900008EEB93E060E040E00E94F10285E492E02B
:1009100068E770E00E94F603892BC1F368EE73E08C
:1009200080E090E00E94FA0485E492E060E270E0EA
:1009300048E750E00E94260280EFEEEBF2E0DF0194
:100940001D928A95E9F708951F920F920FB60F92A4
:1009500011242F933F938F939F93AF93BF938091D5
:10096000CC039091CD03A091CE03B091CF033091F1
:10097000D0030196A11DB11D232F2D5F2D3720F02F
:100980002D570196A11DB11D2093D0038093CC0358
:100990009093CD03A093CE03B093CF038091C8036F
:1009A0009091C903A091CA03B091CB030196A11DF8
:1009B000B11D8093C8039093C903A093CA03B09359
:1009C000CB03BF91AF919F918F913F912F910F904A
:1009D0000FBE0F901F9018958FB7F8942091CC03FD
:1009E0003091CD034091CE035091CF038FBFB90119
:1009F000CA0108959B01AC017FB7F8948091C803A8
:100A00009091C903A091CA03B091CB0366B5A89B8E
:100A100005C06F3F19F00196A11DB11D7FBFBA2F10
:100A2000A92F982F8827860F911DA11DB11D62E067
:100A3000880F991FAA1FBB1F6A95D1F7BC012DC053
:100A4000FFB7F8948091C8039091C903A091CA039D
:100A5000B091CB03E6B5A89B05C0EF3F19F0019616
:100A6000A11DB11DFFBFBA2FA92F982F88278E0F68
:100A7000911DA11DB11DE2E0880F991FAA1FBB1F88
:100A8000EA95D1F7861B970B885E9340C8F22150F8
:100A900030404040504068517C4F211531054105A0
:100AA000510571F60895789484B5826084BD84B54B
:100AB000816084BD85B5826085BD85B5816085BD59
:100AC000EEE6F0E0808181608083E1E8F0E0108272
:100AD000808182608083808181608083E0E8F0E0B3
:100AE000808181608083E1EBF0E08081846080839D
:100AF000E0EBF0E0808181608083E1E9F0E08081DB
:100B000082608083808181608083E0E9F0E0808181
:100B100081608083E1EAF0E080818260808380816F
:100B200081608083E0EAF0E0808181608083E1E29F
:100B3000F1E0808182608083808181608083E0E257
:100B4000F1E0808181608083EAE7F0E08081846069
:100B500080838081826080838081816080838081C6
:100B6000806880831092C1000895CF93DF93482F4F
:100B700050E0CA01885A9C4FFC0134914E5E5C4F94
:100B8000FA018491882369F190E0880F991FFC0194
:100B9000EC53FD4FA591B491FC01E252FD4FC5917C
:100BA000D491662351F42FB7F8948C91932F90959C
:100BB00089238C93888189230BC0623061F42FB71D
:100BC000F8948C91932F909589238C938881832B13
:100BD00088832FBF06C09FB7F8948C91832B8C938A
:100BE0009FBFDF91CF910895893009F449C08A30C1
:100BF000A0F4843051F1853040F4823079F18330B3
:100C000000F5813009F063C026C0873079F1883063
:100C100098F5863009F05BC025C08D3009F442C0DC
:100C20008E3028F48B30B1F18C30C0F52DC080317E
:100C300009F442C0813109F445C08F3009F047C042
:100C400037C0809180008F7703C0809180008F7DB6
:100C500080938000089584B58F7702C084B58F7D1E
:100C600084BD08958091B0008F7703C08091B0005B
:100C70008F7D8093B0000895809190008F7707C09A
:100C8000809190008F7D03C080919000877F80933A
:100C9000900008958091A0008F7707C08091A000F8
:100CA0008F7D03C08091A000877F8093A00008956E
:100CB000809120018F7703C0809120018F7D8093E8
:100CC0002001089580912001877F8093200108955D
:100CD000FF920F931F93F62E482F50E0CA018256C1
:100CE0009C4FFC012491CA01885A9C4FFC0114912D
:100CF0004E5E5C4FFA0104910023C9F0222319F0E3
:100D0000822F0E94F405E02FF0E0EE0FFF1FE25269
:100D1000FD4FA591B4919FB7F894FF2021F48C91D9
:100D20001095812302C08C91812B8C939FBF1F91C2
:100D30000F91FF90089508951F920F920FB60F9292
:100D40000BB60F9211242F933F934F938F939F9342
:100D5000EF93FF938091C00082FD1DC04091C600BB
:100D600020911104309112042F5F3F4F2F73307088
:100D700080911304909114042817390771F0E091C1
:100D80001104F0911204EF52FC4F4083309312048F
:100D90002093110402C08091C600FF91EF919F91B2
:100DA0008F914F913F912F910F900BBE0F900FBEDF
:100DB0000F901F9018951F920F920FB60F920BB6BF
:100DC0000F9211242F933F934F938F939F93EF9301
:100DD000FF938091C80082FD1DC04091CE002091FC
:100DE000990430919A042F5F3F4F2F733070809198
:100DF0009B0490919C042817390771F0E0919904A5
:100E0000F0919A04E75AFB4F408330939A04209361
:100E1000990402C08091CE00FF91EF919F918F9134
:100E20004F913F912F910F900BBE0F900FBE0F90DF
:100E30001F90189508951F920F920FB60F920BB640
:100E40000F9211242F933F934F938F939F93EF9380
:100E5000FF938091D00082FD1DC04091D60020916B
:100E60002105309122052F5F3F4F2F733070809105
:100E70002305909124052817390771F0E091210589
:100E8000F0912205EF51FB4F4083309322052093D0
:100E9000210502C08091D600FF91EF919F918F9123
:100EA0004F913F912F910F900BBE0F900FBE0F905F
:100EB0001F90189508951F920F920FB60F920BB6C0
:100EC0000F9211242F933F934F938F939F93EF9300
:100ED000FF938091300182FD1DC040913601209129
:100EE000A9053091AA052F5F3F4F2F733070809175
:100EF000AB059091AC052817390771F0E091A90571
:100F0000F091AA05E759FA4F40833093AA05209340
:100F1000A90502C080913601FF91EF919F918F91B9
:100F20004F913F912F910F900BBE0F900FBE0F90DE
:100F30001F901895E091FD05F091FE05E05CFF4FD4
:100F40008191919120813181821B930B8F739070DD
:100F5000892B11F00E949B06E0911F06F09120065C
:100F6000E05CFF4F8191919120813181821B930B35
:100F70008F739070892B11F00E941803E091410645
:100F8000F0914206E05CFF4F819191912081318187
:100F9000821B930B8F739070892B11F00E941A079C
:100FA000E0916306F0916406E05CFF4F81919191BE
:100FB00020813181821B930B8F739070892B11F0EC
:100FC0000E945A0708951F920F920FB60F920BB608
:100FD0000F9211242F933F938F939F93EF93FF933F
:100FE00020915504309156048091570490915804F3
:100FF0002817390731F48091C1008F7D8093C1009B
:1010000014C0E0915704F0915804EB5EFB4F20812F
:10101000809157049091580401968F73907090932B
:101020005804809357042093C600FF91EF919F913D
:101030008F913F912F910F900BBE0F900FBE0F908D
:101040001F9018951F920F920FB60F920BB60F922A
:1010500011242F933F938F939F93EF93FF932091AE
:10106000DD043091DE048091DF049091E0042817C4
:10107000390731F48091C9008F7D8093C90014C075
:10108000E091DF04F091E004E356FB4F2081809172
:10109000DF049091E00401968F7390709093E004C8
:1010A0008093DF042093CE00FF91EF919F918F9169
:1010B0003F912F910F900BBE0F900FBE0F901F907E
:1010C00018951F920F920FB60F920BB60F92112424
:1010D0002F933F938F939F93EF93FF9320916505F9
:1010E000309166058091670590916805281739074A
:1010F00031F48091D1008F7D8093D10014C0E091B4
:101100006705F0916805EB5DFA4F208180916705D6
:101110009091680501968F73907090936805809305
:1011200067052093D600FF91EF919F918F913F919A
:101130002F910F900BBE0F900FBE0F901F90189520
:101140001F920F920FB60F920BB60F9211242F938E
:101150003F938F939F93EF93FF932091ED053091F1
:10116000EE058091EF059091F0052817390731F4CD
:10117000809131018F7D8093310114C0E091EF05A2
:10118000F091F005E355FA4F20818091EF059091A1
:10119000F00501968F7390709093F0058093EF05A2
:1011A00020933601FF91EF919F918F913F912F9165
:1011B0000F900BBE0F900FBE0F901F901895AF921F
:1011C000BF92DF92EF92FF920F931F93CF93DF9323
:1011D000EC017A018B01DD24403081EE580780E07C
:1011E000680780E0780711F0DD24D39491E0A92E00
:1011F000B12CEC89FD89DD2069F0C50108A002C091
:10120000880F991F0A94E2F7808360E079E08DE30C
:1012100090E005C0108260E874E88EE190E0A801DB
:1012200097010E94D80B21503040404050405695C5
:1012300047953795279580E12030380720F0DD204D
:1012400011F0DD24D6CFE889F9893083EA89FB895A
:10125000208319A2EE89FF89408121E030E0C90195
:101260000C8C02C0880F991F0A94E2F7482B408328
:10127000EE89FF894081C9010D8C02C0880F991F3A
:101280000A94E2F7482B4083EE89FF894081C90127
:101290000E8C02C0880F991F0A94E2F7482B4083F6
:1012A000EE89FF8980810F8C02C0220F331F0A94C0
:1012B000E2F7209528232083DF91CF911F910F9192
:1012C000FF90EF90DF90BF90AF900895DC011C96E7
:1012D000ED91FC911D97E05CFF4F21913191808150
:1012E0009181281B390B2F733070C9010895DC01DF
:1012F0001C96ED91FC911D97E05CFF4F20813181A0
:10130000E054F040DF01AE5BBF4F8D919C9111978F
:101310002817390719F42FEF3FEF07C08D919C91E3
:10132000E80FF91F8081282F30E0C9010895DC0102
:101330001C96ED91FC911D97E05CFF4F208131815F
:10134000E054F040DF01AE5BBF4F8D919C9111974F
:101350002817390719F42FEF3FEF10C08D919C919A
:101360001197E80FF91F20818D919C91119701969B
:101370008F73907011969C938E9330E0C9010895FD
:10138000DC0191968C919197882339F05496ED91D8
:10139000FC915597808186FFF9CF91961C92089514
:1013A000CF93DF93EC01EE85FF85E05CFF4F20815A
:1013B0003181E054F0402F5F3F4F2F733070DF01D9
:1013C000AE5BBF4F8D919C91119728173907D1F3D0
:1013D000E05CFF4F80819181E054F040E80FF91FFD
:1013E0006083EE85FF85E05CFF4F31832083EE89CB
:1013F000FF89208181E090E00F8C02C0880F991F47
:101400000A94E2F7282B208381E089A3EC89FD89E7
:1014100080818064808381E090E0DF91CF910895A6
:101420001F931092F4051092F30528EE33E040E08C
:1014300050E02093F5053093F6054093F70550935F
:10144000F80562EB73E07093F2056093F10581EDAE
:1014500093E09093FE058093FD0585E194E09093E1
:1014600000068093FF0585EC90E090930206809340
:10147000010684EC90E0909304068093030680ECD0
:1014800090E0909306068093050681EC90E090939F
:1014900008068093070682EC90E090930A068093FA
:1014A000090686EC90E090930C0680930B0614E0FE
:1014B00010930D06B3E0B0930E06A7E0A0930F06BD
:1014C000F5E0F0931006E1E0E093110610921606A5
:1014D00010921506209317063093180640931906AC
:1014E00050931A06709314066093130689E594E0EE
:1014F0009093200680931F068DE994E09093220636
:10150000809321068DEC90E090932406809323062F
:101510008CEC90E0909326068093250688EC90E072
:10152000909328068093270689EC90E090932A06F2
:10153000809329068AEC90E090932C0680932B06EA
:101540008EEC90E090932E0680932D0610932F063C
:10155000B0933006A0933106F0933206E093330641
:1015600010923806109237062093390630933A06C7
:1015700040933B0650933C067093360660933506C5
:1015800081EE94E0909342068093410685E295E0D7
:10159000909344068093430685ED90E09093460631
:1015A0008093450684ED90E090934806809347062B
:1015B00080ED90E090934A068093490681ED90E09B
:1015C00090934C0680934B0682ED90E090934E06EC
:1015D00080934D0686ED90E09093500680934F06E1
:1015E00010935106B0935206A0935306F0935406FD
:1015F000E093550610925A061092590620935B0606
:1016000030935C0640935D0650935E0670935806D7
:101610006093570689E695E090936406809363068D
:101620008DEA95E0909366068093650685E391E0E8
:10163000909368068093670684E391E090936A062E
:101640008093690680E391E090936C0680936B062B
:1016500081E391E090936E0680936D0682E391E0C2
:101660009093700680936F0686E391E090937206E4
:101670008093710610937306B0937406A093750659
:10168000F0937606E09377061F910895CF93DF934A
:101690000E9453050E945504CAE9D7E00E9417032F
:1016A0002097E1F30E949A07F9CFCF92DF92EF9251
:1016B000FF920F931F93CF93DF937C016B018A01FD
:1016C000C0E0D0E00FC0D6016D916D01D701ED9162
:1016D000FC910190F081E02DC7011995C80FD91F29
:1016E000015010400115110571F7CE01DF91CF9126
:1016F0001F910F91FF90EF90DF90CF900895EF92A0
:10170000FF920F931F938C01DC01ED91FC910190EE
:10171000F081E02D6DE019957C01D801ED91FC91EF
:101720000190F081E02DC8016AE019959C012E0D11
:101730003F1DC9011F910F91FF90EF900895CF9326
:10174000DF93EC016115710519F420E030E00FC062
:10175000DB010D900020E9F71197A61BB70BE8817C
:10176000F9810280F381E02DAD0119959C01C90139
:10177000DF91CF910895EF92FF920F931F937C0119
:101780000E949F0B8C01C7010E947F0B080F191F3D
:10179000C8011F910F91FF90EF900895911105C01E
:1017A0008F3711F08052D8F7089599278827089528
:1017B000A1E21A2EAA1BBB1BFD010DC0AA1FBB1F55
:1017C000EE1FFF1FA217B307E407F50720F0A21BC7
:1017D000B30BE40BF50B661F771F881F991F1A9434
:1017E00069F760957095809590959B01AC01BD015E
:1017F000CF010895EE0FFF1F0590F491E02D19948D
:04180000F894FFCF8A
:1018040020202020202020202020202020202020D4
:101814002020202000693A202564007465787442F1
:1018240075663A202573007469636B3A2025640059
:10183400737461636B3A202573003E3E20537461D8
:101844007274200A00205F5F5F20202020205F2028
:101854002020202020202020207C205F205C5F5F2F
:101864005F7C207C5F5F20205F5F5F20207C2020E6
:10187400202F205F205C20275F205C2F202D5F29F4
:10188400207C5F7C5F5C5F5F5F2F5F2E5F5F2F5C00
:101894005F5F5F7C2020202020202020202020202B
:1018A4002020202020202020202020202020202034
:1018B4002020202020202020202020202000000084
:1018C4000000000000000000000000000000000014
:1018D4000000000000000000000000000000000004
:1018E40000000000000000000000000000000000F4
:1018F40000000000000000000000000000000000E4
:1019040000000000000000000000000000000000D3
:1019140000000000000000000000000000000000C3
:1019240000000000000000000000000000000000B3
:1019340000000000000000000000000000000000A3
:101944000000000000000000000000000000000093
:101954000000000000000000000000000000000083
:101964000000000000000000000000000000000073
:101974000000000000000000000000000000000063
:101984000000000000000000000000000000000053
:101994000000000000000000000000000000000043
:1019A4000000000000000000000000000000000033
:0E19B4000000D009550B660997097709C00994
:00000001FF
