:100000000C942B000C944B000C944B000C944B0064
:100010000C944B000C944B000C944B000C944B0034
:100020000C944B000C944B000C944B000C944B0024
:100030000C944B000C944B000C944B000C944B0014
:100040000C944B000C944B000C944B000C944B0004
:100050000C944B007C0211241FBECFE5D4E0DEBF20
:10006000CDBF12E0A0E6B0E0E2ECF7E002C0059000
:100070000D92A036B107D9F710E0C6E5D0E004C074
:100080002297FE010E942B03C435D107C9F70E94B5
:10009000B9010C94DF030C940000949A8AE18A95CC
:1000A000F1F700C094988AE18A95F1F700C0949A1C
:1000B000089595B315BA613079F49598969A85BBF1
:1000C000949A8AE18A95F1F700C094988AE18A951A
:1000D000F1F700C0949A0895662371F49598969864
:1000E00085BB949A8AE18A95F1F700C094988AE1D9
:1000F0008A95F1F700C0949A0895806B60E00E94A1
:1001000059000895CF93DF93C82FD0E0CE0124E0AB
:10011000959587952A95E1F7806160E00E945900E6
:100120009E012F70822F60E00E945900DF91CF91D5
:100130000895A1E0B0E0EFE9F0E00C94EE02663043
:1001400008F066E0843608F084E669830E94820045
:100150006981862F0E947D002196E2E00C940A03BB
:100160000F931F93162F843698F5603388F56695A4
:10017000669566950E94990080EE60E00E945900A5
:1001800014BA13BA959A969A0E944D008AE18A95FC
:10019000F1F700C00E944D008AE18A95F1F700C096
:1001A00003B38FEF84BB802F61E00E9459008EEE75
:1001B00060E00E945900177021E030E002C0220F79
:1001C000331F1A95E2F7802F822B61E00E945900BD
:1001D0001F910F910895A0E0B0E0E1EFF0E00C94E2
:1001E000E002362F862E9924622F70E0231718F430
:1001F000861A970A04C0DB01A819B9094D01682FB6
:1002000070E0E42FF0E0481728F4DB01AE1BBF0BD1
:10021000FD0102C0E61BF70B51E0C52ED12CE815FD
:10022000F90514F0CC24DD24C114D10451F0830F5E
:10023000B82FB31B3B2F8B1B420FE42FE21B2E2F3B
:100240004E1B481750F4840FF82FF41B4F2F8F1BB1
:10025000320F932F921B292F391B442E5524C82F60
:10026000D0E032016C1A7D0A832E9924622F70E04F
:10027000321728F4DB01A819B9094D0102C0861A0A
:10028000970AC30162E070E00E94CB028B01E32E6B
:10029000FF24321720F431E0A32EB12C17C0AA247A
:1002A000AA94BA2C13C0C114D10419F08E2D6C2F4E
:1002B00002C08C2F6E2D0E94B0000819190917FF7B
:1002C00004C0EA0CFB1C060D171D21964C165D069A
:1002D00054F7CDB7DEB7E0E10C94FC02A0E0B0E04B
:1002E000E4E7F1E00C94E80280E060E00E9499000D
:1002F000EE24FF248E2D0E947D0080EE60E00E949F
:10030000590070E6C72E70E0D72EF60101916F01FB
:100310000052802F90E0EC01CC0FDD1FCC0FDD1FD1
:10032000C80FD91FC758DF4FF5E00F9F8001112478
:1003300002581F4F899161E00E945900C017D107F0
:10034000C9F784E7C81680E0D806F9F68EEE60E0BB
:100350000E94590080E00E9482000894E11CF11C78
:10036000E6E0EE16F10431F6CDB7DEB7E8E00C9426
:100370000403A0E0B0E0EFEBF1E00C94E1020E9496
:100380006E0187EA60E00E9459000FEF08C0063056
:1003900030F4E02FF0E0E75AFD4F108101C010E08B
:1003A000E12EE2949FE0E92286EB60E00E94590092
:1003B0008E2D806160E00E945900812F8F7060E077
:1003C0000E94590080E061E00E9459000F5F0630F2
:1003D000F1F680E960E00E94590080E487B987E87F
:1003E00086B987B1887F87B9369A3699FECF84B1AE
:1003F00095B10E94780384E1982E8AE06AE044E196
:100400002AE00E94EB008AE064E144E124E10E94DA
:10041000EB008AE06AE04AE024E10E94EB0084E11C
:100420006AE044E124E10E94EB0080E060E044E601
:1004300020E30E94EB0084E169E10E94B00084E1C6
:100440006FE00E94B00089E164E10E94B0008FE09B
:1004500064E10E94B00003E1802E11E0C12ED12C96
:1004600000E010E0B5E0EB2EF12CA6EFAA2EAFEFE6
:10047000BA2ECCEFDFEF11C082E090E0C80ED91E9B
:10048000CC0DDD1D1C161D063CF40894E108F10896
:10049000A80EB91ECA0DDB1D8A940F5F1F4FF4E131
:1004A0005F2E5E0CE4E16E2E600E852D662D0E949F
:1004B000B000992D9E19792E892F662D0E94B000CB
:1004C000852D682D0E94B000872D682D0E94B000F8
:1004D000862D652D0E94B000882D652D0E94B000EC
:1004E000862D672D0E94B000882D672D0E94B000D8
:1004F0000E151F050CF281CF81B3806781BB8FEF92
:1005000084BB8FEF90E7A2E081509040A040E1F7DC
:1005100000C0000082EE60E00E9459008FEF99E673
:10052000A8E181509040A040E1F700C0000081EABE
:1005300060E00E94590082EA60E00E9459008CE26B
:1005400060E00E9459008EE260E00E9459008FE254
:1005500060E00E94590086EA60E00E9459008FE83E
:1005600060E00E94590084EA60E00E9459008FEA2E
:1005700060E00E94590080E460E00E9459000E94FF
:100580006E018FEF90E7A2E081509040A040E1F72C
:1005900000C00000089597FB092E07260AD077FDBA
:1005A00004D043D006D000201AF4709561957F4F97
:1005B0000895F6F7909581959F4F08952F923F9259
:1005C0004F925F926F927F928F929F92AF92BF9263
:1005D000CF92DF92EF92FF920F931F93CF93DF930F
:1005E000CDB7DEB7CA1BDB0B0FB6F894DEBF0FBE6C
:1005F000CDBF09942A88398848885F846E847D84B9
:100600008C849B84AA84B984C884DF80EE80FD80BA
:100610000C811B81AA81B981CE0FD11D0FB6F89430
:10062000DEBF0FBECDBFED010895AA1BBB1B51E17C
:1006300007C0AA1FBB1FA617B70710F0A61BB70B52
:10064000881F991F5A95A9F780959095BC01CD01F7
:100650000895EE0FFF1F0590F491E02D0994A0E09E
:10066000B0E0E5E3F3E00C94E602EC016881798107
:100670008A819B81611571058105910521F464E2F0
:1006800079ED8BE597E02DE133EF41E050E00E94FA
:10069000A20379018A0127EA31E440E050E00E9498
:1006A00083035B016C01C801B7012CEE34EF4FEFFF
:1006B0005FEF0E9483036A0D7B1D8C1D9D1D97FFBC
:1006C00004C06150704080409048688379838A8379
:1006D0009B837F77CB01CDB7DEB7EAE00C940203B2
:1006E0000E942F03089585E790E00E942F0308954C
:1006F000A0E0B0E08093750090937600A09377001F
:10070000B09378000895629FD001739FF001829F9B
:10071000E00DF11D649FE00DF11D929FF00D839F90
:10072000F00D749FF00D659FF00D9927729FB00D2D
:10073000E11DF91F639FB00DE11DF91FBD01CF0140
:100740001124089597FB092E05260ED057FD04D0DD
:1007500014D00AD0001C38F450954095309521955E
:100760003F4F4F4F5F4F0895F6F7909580957095E6
:1007700061957F4F8F4F9F4F0895A1E21A2EAA1BBC
:10078000BB1BFD010DC0AA1FBB1FEE1FFF1FA21741
:10079000B307E407F50720F0A21BB30BE40BF50B3E
:1007A000661F771F881F991F1A9469F760957095C7
:1007B000809590959B01AC01BD01CF010895F894FF
:0207C000FFCF69
:1007C2002020202020202020202020202020202027
:1007D2002020202000010000000000000000000096
:1007E2005F00000007000700147F147F14242A7F93
:1007F2002A12231308646236495522500005030069
:1008020000001C2241000041221C00082A1C2A0868
:1008120008083E08080050300000080808080800D0
:100822006060000020100804023E5149453E00422B
:100832007F400042615149462141454B3118141213
:100842007F1027454545393C4A4949300171090520
:10085200033649494936064949291E003636000001
:1008620000563600000008142241141414141441D6
:10087200221408000201510906324979413E7E11D3
:1008820011117E7F494949363E414141227F414112
:10089200221C7F494949417F090901013E414151D9
:1008A200327F0808087F00417F41002040413F011C
:1008B2007F081422417F404040407F0204027F7F34
:1008C2000408107F3E4141413E7F090909063E412D
:1008D20051215E7F09192946464949493101017F63
:1008E20001013F4040403F1F2040201F7F20182031
:1008F2007F63140814630304780403615149454378
:1009020000007F4141020408102041417F000004A1
:100912000201020440404040400001020400205411
:100922005454787F4844443838444444203844443A
:10093200487F3854545418087E090102081454544C
:100942003C7F0804047800447D40002040443D0080
:10095200007F10284400417F40007C041804787C0A
:100962000804047838444444387C141414080814E5
:1009720014187C7C080404084854545420043F444E
:1009820040203C4040207C1C2040201C3C40304009
:100992003C44281028440C5050503C4464544C446D
:1009A200000836410000007F0000004136080008C0
:1009B200082A1C08081C2A0808141F2039454E0062
:00000001FF
