:100000000C942B000C9453000C9453000C9453004C
:100010000C9453000C9453000C9453000C94530014
:100020000C9453000C9453000C9453000C94530004
:100030000C9453000C9453000C9453000C945300F4
:100040000C9453000C9453000C9453000C945300E4
:100050000C945300D60311241FBECFE5D4E0DEBFBD
:10006000CDBF12E0A0E6B0E0E8E8FDE002C00590F8
:100070000D92A63EB107D9F712E0A6EEB2E001C09C
:100080001D92A73EB107E1F710E0C6E5D0E004C03D
:100090002297FE010E94DD03C435D107C9F70E94F3
:1000A000A2030C94C2060C94000085B315BA41302B
:1000B00079F49598969A65BB949A8AE18A95F1F7B6
:1000C00000C094988AE18A95F1F700C0949A089547
:1000D000442371F49598969865BB949A8AE18A9521
:1000E000F1F700C094988AE18A95F1F700C0949ADC
:1000F0000895605840E00E9455000895FF920F93C4
:100100001F93CF93DF93EC01042F6150663030F4DE
:10011000E62FF0E0E152FD4F108101C010E0F12E1A
:10012000F2948FE0F822CE0166EB40E00E94550089
:100130006F2D6061CE0140E00E945500612F6F700D
:10014000CE0140E00E945500CE01602F41E00E94A8
:100150005500DF91CF911F910F91FF90089521E0FD
:1001600062276A5540E00E94550008950F931F933F
:10017000CF93DF938C01C62FD0E0BE0194E075953C
:1001800067959A95E1F76061C80140E00E945500CB
:10019000BE016F707070C80140E00E945500DF9191
:1001A000CF911F910F910895606B40E00E94550020
:1001B000089570E062557F4F40E00E945500089519
:1001C0000F931F93DF93CF930F92CDB7DEB78C01C0
:1001D000653608F064E6C80149830E94B60049818B
:1001E000642F473008F066E0C8010E94D4000F90E9
:1001F000CF91DF911F910F910895643148F44630FB
:1002000038F4262F220F220F260F622F0E94E000C3
:10021000089560E040E00E94FD00089560E00E94C3
:10022000B60008956F927F928F929F92AF92BF9285
:10023000CF92DF92EF92FF920F931F93DF93CF93B2
:100240000F92CDB7DEB78C01E62EA62FB72FFD019A
:1002500001900020E9F73197EA1BFB0BCE2EDF2E31
:1002600085E1C816D1041CF054E1C52ED12CC8017B
:1002700060EE40E079830E94550079818E2C972EA4
:10028000AA24BB2425E027C0F40131914F0130524C
:10029000832F90E03C01660C771C660C771C680E7F
:1002A000791E8FEF90E0680E791E329F7001112445
:1002B000E4E0F1E0EE0EFF1EF30161913F01C801A1
:1002C00041E029830E94550029816E147F04A1F723
:1002D0000894A11CB11CAC14BD04B4F2C8016EEEAC
:1002E00040E00E945500C8010E940E010F90CF917E
:1002F000DF911F910F91FF90EF90DF90CF90BF9013
:10030000AF909F908F907F906F9008950F931F9361
:10031000CF93DF938C01C0E0D0E0C8016C2F0E9426
:10032000D400C80160E670E00E9412012196C63038
:10033000D10599F7DF91CF911F910F910895CF9338
:10034000DF93EC0162EE40E00E9455008FEF99E6EA
:10035000A8E181509040A040E1F700C00000CE012C
:1003600061EA40E00E945500CE0162EA40E00E944E
:100370005500CE016CE240E00E945500CE016EE2D5
:1003800040E00E945500CE016FE240E00E9455001F
:10039000CE0166EA40E00E945500CE016FE840E0E1
:1003A0000E945500CE0164EA40E00E945500CE0153
:1003B0006FEA40E00E945500CE0160E440E00E94F8
:1003C0005500CE010E948601DF91CF91089521B39F
:1003D000206721BB2FEF24BB2FEF30E742E02150F5
:1003E00030404040E1F700C000000E949F018FEFC5
:1003F00090E7A2E081509040A040E1F700C00000EB
:10040000089560E00E94D4000895969A949A959A6F
:100410008FE79AE1A6E081509040A040E1F700C04C
:1004200000009698949895988FE79AE1A6E08150FD
:100430009040A040E1F700C000000895BC0186EEA6
:1004400092E00E94120108950F931F93DF93CF93C0
:10045000CDB7DEB765970FB6F894DEBF0FBECDBF40
:100460002DB73EB7285030400FB6F8943EBF0FBEB0
:100470002DBFEDB7FEB731968E010F5F1F4FADB7A1
:10048000BEB712961C930E93119725E730E0338385
:10049000228375836483978386830E94E1032DB74B
:1004A0003EB7285F3F4F0FB6F8943EBF0FBE2DBF3B
:1004B00086EE92E0B8010E94120165960FB6F8949C
:1004C000DEBF0FBECDBFCF91DF911F910F91089579
:1004D0000F931F93DF93CF93CDB7DEB765970FB61A
:1004E000F894DEBF0FBECDBF2DB73EB72A503040C7
:1004F0000FB6F8943EBF0FBE2DBFEDB7FEB73196D5
:100500008E010F5F1F4FADB7BEB712961C930E93AF
:1005100011972AE730E033832283558344839783FE
:100520008683718760870E94E1032DB73EB7265FFF
:100530003F4F0FB6F8943EBF0FBE2DBF86EE92E040
:10054000B8010E94120165960FB6F894DEBF0FBE87
:10055000CDBFCF91DF911F910F910895949A8AE1B9
:100560008A95F1F700C094988AE18A95F1F700C066
:10057000949A08951F93CF93DF93C6EED2E0CE01F5
:1005800060EE40E00E94550014BA13BA959A969A0C
:100590000E94AE028AE18A95F1F700C00E94AE0285
:1005A0008AE18A95F1F700C013B38FEF84BBCE01C7
:1005B000612F41E00E945500CE016EEE40E00E94A6
:1005C0005500812FDF91CF911F910895FF920F93D6
:1005D0001F93082F853608F004E6162F613308F0C4
:1005E00010E3F12EF694F694F69486EE92E0602FE6
:1005F0004F2D0E94E000802F6F2D0E94BA021770CD
:1006000061E070E002C0660F771F1A95E2F7682B71
:1006100086EE92E041E00E94550086EE92E00E9454
:100620000E0186EE92E00E9401021F910F91FF9051
:100630000895CF93DF93C0E0D0E086EE92E06C2F78
:1006400040E00E947E002196C730D105B1F7DF91CE
:10065000CF9108950F931F93DF93CF93CDB7DEB75C
:1006600065970FB6F894DEBF0FBECDBF00D000D0A7
:1006700000D0EDB7FEB731968E010F5F1F4FADB7BB
:10068000BEB712961C930E93119725E830E0338382
:100690002283958384830E94E1038DB79EB70696DB
:1006A0000FB6F8949EBF0FBE8DBF86EE92E0B801E4
:1006B0000E94120165960FB6F894DEBF0FBECDBF43
:1006C000CF91DF911F910F910895CF93DF93C6EEE5
:1006D000D2E0CE0161E00E94D400CE016FE870E06C
:1006E0000E941201CE0162E00E94D400CE0165EAB0
:1006F00070E00E941201CE0163E00E94D400CE019E
:100700006BEB70E00E941201CE0164E00E94D40005
:10071000CE0161ED70E00E941201CE0165E00E9401
:10072000D400CE0160EE70E00E941201CE0166E0BE
:100730000E94D400CE016EEE70E00E941201DF91A3
:10074000CF910895CF93DF9386EE92E00E94090146
:1007500086EE92E06FE00E947900C0E0D0E08C2F3E
:1007600060E00E94E6022196C436D105C1F7C0E0E0
:10077000D0E080E06C2F0E94E6022196C033D105C4
:10078000C1F7C0E0D0E08C2F6FE20E94E602219614
:10079000C436D105C1F7C0E0D0E083E66C2F0E94DB
:1007A000E6022196C033D105C1F7CECF86EE92E0A6
:1007B0000E94E7010895EE0FFF1F0590F491E02DD0
:1007C0000994AEE0B0E0E7EEF3E00C9499060D89F1
:1007D0001E8986E08C831A8309838FEF9FE79E83AF
:1007E0008D839E01275E3F4FCE0101966F89788DE4
:1007F000A9010E940404EF81F885E00FF11F108227
:100800002E96E4E00C94B506ACE0B0E0EAE0F4E04B
:100810000C948B066C011B018A01FC011782168265
:10082000838181FFD1C12E010894411C511CF60126
:100830009381F10193FD859193FF81911F0188239D
:1008400009F4BEC1853239F493FD859193FF8191FE
:100850001F01853229F490E0B6010E940106E7CF1E
:10086000EE24FF2420E02032B0F48B3269F08C3289
:1008700028F4803251F0833271F40BC08D3239F09C
:10088000803349F421602CC02260246029C0286094
:1008900027C0206125C027FD2CC0382F30533A30A7
:1008A00098F426FF08C08E2D880FE82EEE0CEE0C73
:1008B000E80EE30E15C08F2D880FF82EFF0CFF0CED
:1008C000F80EF30E20620CC08E3221F426FD78C1A2
:1008D000206406C08C3611F4206802C0883649F4C2
:1008E000F10193FD859193FF81911F01882309F008
:1008F000BACF982F9554933018F09052933028F433
:100900000C5F1F4FFFE3F9830DC0833631F083374F
:1009100071F0833509F060C022C0F80180818983BD
:100920000E5F1F4F420171E0A72EB12C16C062E08E
:10093000662E712C600E711EF8018080918026FF5A
:1009400003C06E2D70E002C06FEF7FEFC4012C87F3
:100950000E94F6055C0183012C852F7717C052E0B9
:10096000652E712C600E711EF8018080918026FF2B
:1009700003C06E2D70E002C06FEF7FEFC4012C87C3
:100980000E94EB055C012C852068830123FD20C0BB
:1009900008C080E290E0B6012C870E940106FA941C
:1009A0002C858F2D90E0A816B90698F311C0F4019C
:1009B00027FD859127FF81914F0190E0B6012C879B
:1009C0000E9401062C85F110FA940894A108B10840
:1009D000A114B10461F7F1C0843611F0893649F5EC
:1009E00027FF08C0F80160817181828193810C5FCB
:1009F0001F4F09C0F80160817181882777FD8095BC
:100A0000982F0E5F1F4F4FE6B42EB22297FF09C0FA
:100A100090958095709561957F4F8F4F9F4FF0E82F
:100A2000BF2AA2012AE030E00E942D06782E741819
:100A300045C0853731F43FEEB32EB2222AE030E0D4
:100A400025C099EFB92EB2228F36C1F0803720F43D
:100A5000883509F0B5C00DC0803721F0883709F01E
:100A6000AFC002C020E1B22AB4FE0BC084E0B82AB5
:100A700008C0B4FE09C0E6E0BE2A06C028E030E0A7
:100A800005C020E130E002C020E132E0B7FE08C03E
:100A9000F80160817181828193810C5F1F4F07C0D3
:100AA000F8016081718180E090E00E5F1F4FA2012C
:100AB0000E942D06782E7418FFE7BF22B6FE0BC0E9
:100AC0002EEFB2227E1438F4B4FE07C0B2FC05C08B
:100AD0008FEEB82202C0A72C01C0AE2C8B2D90E067
:100AE000B4FE0DC0FE01E70DF11D2081203319F485
:100AF000E9EEBE2209C0A394B2FE06C004C0867807
:100B00009070009709F0A3948B2C9924B3FC14C027
:100B1000B0FE0FC0AF1428F4E72CEF0CEA18AF2C8E
:100B200008C0E72C06C080E290E0B6010E940106F2
:100B3000A394AF14C0F304C0AF1410F4FA1801C0AA
:100B4000FF2484FE0FC080E390E0B6010E940106FE
:100B500082FE1FC081FE03C088E590E010C088E7D8
:100B600090E00DC0C40186789070009791F081FCF0
:100B700002C080E201C08BE2B7FC8DE290E0B601DA
:100B80000E94010606C080E390E0B6010E940106C3
:100B9000EA947E14C0F37A94F201E70DF11D80818E
:100BA00090E0B6010E9401067720A9F706C080E216
:100BB00090E0B6010E940106FA94FF20C1F737CEFB
:100BC000F6012681378102C02FEF3FEFC9012C9635
:100BD000E2E10C94A706FC01059061507040011001
:100BE000D8F7809590958E0F9F1F0895FC01615056
:100BF000704001900110D8F7809590958E0F9F1F3F
:100C000008950F931F93CF93DF938C01EB018B819A
:100C100081FF1BC082FF0DC02E813F818C819D8191
:100C20002817390764F4E881F9810193F983E8838F
:100C300006C0E885F985802F0995009731F48E81EB
:100C40009F8101969F838E8302C00FEF1FEFC80123
:100C5000DF91CF911F910F910895FA01AA272830B3
:100C600051F1203181F1E8946F936E7F6E5F7F4F79
:100C70008F4F9F4FAF4FB1E03ED0B4E03CD0670FF5
:100C8000781F891F9A1FA11D680F791F8A1F911D48
:100C9000A11D6A0F711D811D911DA11D20D009F498
:100CA00068943F912AE0269F11243019305D3193DA
:100CB000DEF6CF010895462F4770405D4193B3E0C3
:100CC0000FD0C9F7F6CF462F4F70405D4A3318F06A
:100CD000495D31FD4052419302D0A9F7EACFB4E01B
:100CE000A6959795879577956795BA95C9F70097D3
:100CF0006105710508959B01AC010A2E0694579574
:100D0000479537952795BA95C9F7620F731F841FCA
:100D1000951FA01D08952F923F924F925F926F9260
:100D20007F928F929F92AF92BF92CF92DF92EF927B
:100D3000FF920F931F93CF93DF93CDB7DEB7CA1BFC
:100D4000DB0B0FB6F894DEBF0FBECDBF09942A8827
:100D5000398848885F846E847D848C849B84AA84CF
:100D6000B984C884DF80EE80FD800C811B81AA815C
:100D7000B981CE0FD11D0FB6F894DEBF0FBECDBF27
:080D8000ED010895F894FFCF86
:100D8800202020202020202020202020202020205B
:100D980020202020002573256400257325642C203D
:100DA800256420200076616C75653A202564003042
:100DB80031323334353637383930313233343536E9
:100DC80037383930004142434445464748494A4B41
:100DD8004C4D4E50515253545556007778797A619C
:100DE80062636465666768696A6B6C6D6E6F707163
:100DF800002020212324252627282029405E2D0095
:100E080020202A2B2D2F3C3E3F3B3A5B5D002A20B9
:100E18004156522072756C6573202121202A0000EA
:100E28000000000000005F00000007000700147FBA
:100E3800147F14242A7F2A12231308646236495522
:100E480022500005030000001C2241000041221C22
:100E580000082A1C2A0808083E080800503000002C
:100E68000808080808006060000020100804023E16
:100E78005149453E00427F40004261514946214167
:100E8800454B311814127F1027454545393C4A49CE
:100E98004930017109050336494949360649492946
:100EA8001E003636000000563600000008142241A5
:100EB80014141414144122140800020151090632B2
:100EC8004979413E7E1111117E7F494949363E419B
:100ED8004141227F4141221C7F494949417F0909FB
:100EE80001013E414151327F0808087F00417F419E
:100EF800002040413F017F081422417F404040408C
:100F08007F0204027F7F0408107F3E4141413E7FFB
:100F1800090909063E4151215E7F091929464649BA
:100F280049493101017F01013F4040403F1F2040B6
:100F3800201F7F2018207F6314081463030478049B
:100F480003615149454300007F41410204081020D4
:100F580041417F000004020102044040404040003B
:100F68000102040020545454787F484444383844DB
:100F7800444420384444487F3854545418087E095F
:100F88000102081454543C7F0804047800447D404E
:100F9800002040443D00007F10284400417F40006D
:100FA8007C041804787C0804047838444444387C69
:100FB80014141408081414187C7C080404084854F1
:100FC800545420043F4440203C4040207C1C204096
:100FD800201C3C4030403C44281028440C505050C1
:100FE8003C4464544C44000836410000007F000033
:100FF800004136080008082A1C08081C2A0808149A
:061008001F2039454E00D7
:00000001FF
