:100000000C9434000C9419020C942F020C9451009F
:100010000C9451000C9451000C9451000C9451001C
:100020000C9451000C9451000C9451000C9451000C
:100030000C9451000C9451000C9451000C945100FC
:100040000C9451000C9451000C948A000C945100B3
:100050000C9451000C9451000C9451000C945100DC
:100060000C9451000C94510011241FBECFEFD4E02A
:10007000DEBFCDBF11E0A0E0B1E0E8E8F5E002C0EE
:1000800005900D92AA39B107D9F711E0AAE9B1E0BC
:1000900001C01D92A43EB107E1F70E9447020C94F3
:1000A000C2020C940000E1ECF0E080818861808362
:1000B0001092C5008CE08093C40086E08093C2005B
:1000C0005098519A789480818068808308959091A7
:1000D000C00095FFFCCF8093C6000895CF93DF93B7
:1000E000EC0189910E94670088818111FACFDF912C
:1000F000CF9108958091C00087FFFCCF8091C6000A
:10010000089510929D01E0919D01F0E0E053FE4FB3
:10011000108208951F920F920FB60F9211242F9301
:100120003F934F935F936F937F938F939F93AF937F
:10013000BF93EF93FF930E947A0090919D019331BA
:1001400041F410929D01E0919D01F0E0E053FE4FDB
:10015000108290919D01E92FF0E0E053FE4F8083E3
:100160009F5F90939D01E0919D01F0E0E053FE4F71
:100170001082FF91EF91BF91AF919F918F917F91ED
:100180006F915F914F913F912F910F900FBE0F9004
:100190001F90189584B1876084B985B1887F85B92F
:1001A0000895E9E6F0E08081826080838081886044
:1001B00080838DB383608DBB78948AB1837E8AB946
:1001C0008BB18C618BB90895579A8BB18F678BB9BE
:1001D000089508950895289847E050E0E1E0F0E0A0
:1001E00090E0A5B19F01042E02C0220F331F0A9494
:1001F000E2F728233923042E02C0359527950A9467
:10020000E2F7B901660F771F660F771FA62BA5B916
:10021000299A299835B1220F220F2095232325B939
:1002200041505109F0F6289A0895CF92DF92EF924B
:10023000FF920F931F93CF93DF9300D0CDB7DEB71C
:10024000BC01C12CD12CEE24E394F12C0AE010E087
:1002500097010C2C01C0220F0A94EAF72295207F07
:100260002095207FCB01B8010E946B02822B69830D
:100270007A830E94EB008FEFC81AD80A69817A81CD
:10028000E4E0CE16D10421F70F900F90DF91CF91CB
:100290001F910F91FF90EF90DF90CF900895809184
:1002A0000401843088F01092030110920201109230
:1002B0009C0110929B011092040110920601109271
:1002C000050184E680930701909106018091050164
:1002D0009817D9F0809104018F5F80930401809179
:1002E00006018093050184E68093070120919B011C
:1002F00030919C014AE0429FC001439F900D112420
:1003000090930301809302010895809107016AE0B0
:100310000E945F02292F8091020190910301820FB8
:10032000911D90939C0180939B0108950895CF9314
:10033000DF93EC010E94810088E091E00E946E0052
:10034000BE0183E291E00E94B102009709F0FFCF65
:10035000DF91CF9108950F931F93CF93DF93EC011B
:100360008881882309F45AC0BE0188E291E00E9486
:10037000B102009711F45F9851C0BE018AE291E08A
:100380000E94B102009721F45F9A85B115B846C06A
:10039000BE018CE291E00E94B102009719F481E362
:1003A00091E009C0BE018FE391E00E94B102009785
:1003B00029F485E491E00E946E0030C0BE0183E51F
:1003C00091E00E94B102009779F50E94810089E5D1
:1003D00091E00E946E0000919B0110919C01CE0162
:1003E0000E9493020817190751F485E791E00E94D3
:1003F0006E000E94810081E080939A010FC0BE01CF
:1004000083E291E00E94B102009729F781E991E02F
:100410000E946E000E94810010929A01DF91CF919C
:100420001F910F910C948100DF91CF911F910F913B
:1004300008951F920F920FB60F9211248F934B9B2A
:1004400008C081E08093060180910701815080936C
:1004500007018F910F900FBE0F901F9018951F925C
:100460000F920FB60F9211248F934A9B07C01092E0
:100470000601809107018F5F809307018F910F9094
:100480000FBE0F901F90189514BC15BC089583E8FB
:1004900084BD83E085BD569A0E94CA000E94E40094
:1004A0000E94D10083E18093070187BD80910701FD
:1004B00087BD8091070190E00E941501F7CF991B3D
:1004C00079E004C0991F961708F0961B881F7A954B
:1004D000C9F78095089597FB072E16F4009407D06E
:1004E00077FD09D00E947F0207FC05D03EF490956D
:1004F00081959F4F0895709561957F4F0895AA1B30
:10050000BB1B51E107C0AA1FBB1FA617B70710F0FE
:10051000A61BB70B881F991F5A95A9F78095909530
:10052000BC01CD010895FC0188279927E894219109
:100530002032E9F3293010F02E30C8F32B3241F08D
:100540002D3239F4689404C00E94BA02820F911DC2
:10055000219120532A30C0F31EF4909581959F4F2E
:100560000895FB01DC018D91019080190110D9F3F0
:10057000990B08957AE0979F902D879F802D910D7C
:0805800011240895F894FFCF47
:10058800D001D204040101640A656E746572696E53
:100598006720636F6D6D616E64206D6F64652E20DA
:1005A8000A0D006578697400310030006F70656E5F
:1005B800000A4F70656E696E672E2E2E0A0D006355
:1005C8006C6F7365000A436C6F73696E672E2E2E0D
:1005D8000A0D006C6F67696E00656E746572207035
:1005E800696E3A20286578697420746F206C65619B
:1005F8007665290A0070696E206D61746368657399
:10060800206163636573206772616E7465642E0A86
:0A061800006C656176696E670A00E8
:00000001FF
