:100000000C9434000C94B2010C94C8010C9451006F
:100010000C9451000C9451000C9451000C9451001C
:100020000C9451000C9451000C9451000C9451000C
:100030000C9451000C9451000C9451000C945100FC
:100040000C9451000C9451000C948A000C945100B3
:100050000C9451000C9451000C9451000C945100DC
:100060000C9451000C94510011241FBECFEFD4E02A
:10007000DEBFCDBF11E0A0E0B1E0EEE8F4E002C0E9
:1000800005900D92AE32B107D9F711E0AEE2B1E0C2
:1000900001C01D92A834B107E1F70E94DD010C9464
:1000A00045020C940000E1ECF0E0808188618083DF
:1000B0001092C5008CE08093C40086E08093C2005B
:1000C0005098519A789480818068808308959091A7
:1000D000C00095FFFCCF8093C6000895CF93DF93B7
:1000E000EC0189910E94670088818111FACFDF912C
:1000F000CF9108958091C00087FFFCCF8091C6000A
:10010000089510923201E0913201F0E0EC5CFE4F74
:10011000108208951F920F920FB60F9211242F9301
:100120003F934F935F936F937F938F939F93AF937F
:10013000BF93EF93FF930E947A0090913201933125
:1001400041F410923201E0913201F0E0EC5CFE4F9C
:10015000108290913201E92FF0E0EC5CFE4F808339
:100160009F5F90933201E0913201F0E0EC5CFE4F32
:100170001082FF91EF91BF91AF919F918F917F91ED
:100180006F915F914F913F912F910F900FBE0F9004
:100190001F901895289847E050E0E1E0F0E090E0EB
:1001A000A5B19F01042E02C0220F331F0A94E2F76B
:1001B00028233923042E02C0359527950A94E2F7A7
:1001C000B901660F771F660F771FA62BA5B9299A6D
:1001D000299835B1220F220F2095232325B94150AC
:1001E0005109F0F6289A0895CF92DF92EF92FF928C
:1001F0000F931F93CF93DF9300D0CDB7DEB7BC0131
:10020000C12CD12CEE24E394F12C0AE010E09701EC
:100210000C2C01C0220F0A94EAF72295207F20952A
:10022000207FCB01B8010E941402822B69837A835C
:100230000E94CA008FEFC81AD80A69817A81E4E067
:10024000CE16D10421F70F900F90DF91CF911F911F
:100250000F91FF90EF90DF90CF9008958091330140
:10026000853088F010922F0110922E0110923101EA
:10027000109230011092330110920101109200018E
:1002800084E680930201909101018091000198170A
:10029000D9F0809133018F5F809333018091010108
:1002A0008093000184E68093020120913001309117
:1002B00031014AE0429FC001439F900D1124909369
:1002C0002F0180932E010895809102016AE00E941F
:1002D0000802292F80912E0190912F01820F911DEC
:1002E000909331018093300108950895CF93DF9367
:1002F000EC018881882399F163E071E0CE010E94CE
:100300003C02009711F05E9826C065E071E0CE01D6
:100310000E943C02009711F05E9A1DC067E071E0F8
:10032000CE010E943C02009749F08AE090E0909351
:100330003101809330018CE091E009C06AE171E005
:10034000CE010E943C02009731F080E291E0DF9103
:10035000CF910C946E00DF91CF910C948100DF91CE
:10036000CF9108951F920F920FB60F9211248F9381
:100370004B9B08C081E08093010180910201815074
:10038000809302018F910F900FBE0F901F901895D0
:100390001F920F920FB60F9211248F934A9B07C0A2
:1003A00010920101809102018F5F809302018F9171
:1003B0000F900FBE0F901F9018958091690082607A
:1003C00080936900809169008860809369008DB393
:1003D00083608DBB7894569A8BB18F6B8BB98AB141
:1003E000837E8AB98BB18C618BB984B1876084B903
:1003F00085B1887F85B90E94530084E391E00E9413
:10040000760180913001909131010E94F400F5CF86
:10041000991B79E004C0991F961708F0961B881F56
:100420007A95C9F78095089597FB072E16F40094E6
:1004300007D077FD09D00E94280207FC05D03EF4C2
:10044000909581959F4F0895709561957F4F089580
:10045000AA1BBB1B51E107C0AA1FBB1FA617B707EA
:1004600010F0A61BB70B881F991F5A95A9F7809506
:100470009095BC01CD010895FB01DC018D910190A7
:0E04800080190110D9F3990B0895F894FFCF5D
:10048E00010164310030006F70656E000A4F7065B7
:10049E006E696E672E2E2E0A0D00636C6F736500EB
:0E04AE00436C6F73696E672E2E2E0A0D0000D0
:00000001FF
