:100000000C9434000C9475010C948B010C945100E9
:100010000C9451000C9451000C9451000C9451001C
:100020000C9451000C9451000C9451000C9451000C
:100030000C9451000C9451000C9451000C945100FC
:100040000C9451000C9451000C948A000C945100B3
:100050000C9451000C9451000C9451000C945100DC
:100060000C9451000C94510011241FBECFEFD4E02A
:10007000DEBFCDBF11E0A0E0B1E0E6E0F4E002C0F9
:1000800005900D92A430B107D9F711E0A4E0B1E0DA
:1000900001C01D92AE31B107E1F70E94A0010C949E
:1000A00001020C940000E1ECF0E080818861808323
:1000B0001092C5008CE08093C40086E08093C2005B
:1000C0005098519A789480818068808308959091A7
:1000D000C00095FFFCCF8093C6000895CF93DF93B7
:1000E000EC0189910E94670088818111FACFDF912C
:1000F000CF9108958091C00087FFFCCF8091C6000A
:10010000089510920801E0910801F0E0E65FFE4FCB
:10011000108208951F920F920FB60F9211242F9301
:100120003F934F935F936F937F938F939F93AF937F
:10013000BF93EF93FF930E947A009091080193314F
:1001400041F410920801E0910801F0E0E65FFE4FF3
:10015000108290910801E92FF0E0E65FFE4F808366
:100160009F5F90930801E0910801F0E0E65FFE4F89
:100170001082FF91EF91BF91AF919F918F917F91ED
:100180006F915F914F913F912F910F900FBE0F9004
:100190001F901895289847E050E0E1E0F0E090E0EB
:1001A000A5B19F01042E02C0220F331F0A94E2F76B
:1001B00028233923042E02C0359527950A94E2F7A7
:1001C000B901660F771F660F771FA62BA5B9299A6D
:1001D000299835B1220F220F2095232325B94150AC
:1001E0005109F0F6289A0895CF92DF92EF92FF928C
:1001F0000F931F93CF93DF9300D0CDB7DEB7BC0131
:10020000C12CD12CEE24E394F12C0AE010E09701EC
:100210000C2C01C0220F0A94EAF72295207F20952A
:10022000207FCB01B8010E94D901822B69837A8398
:100230000E94CA008FEFC81AD80A69817A81E4E067
:10024000CE16D10421F70F900F90DF91CF911F911F
:100250000F91FF90EF90DF90CF900895809109016A
:10026000853088F010920501109204011092070168
:1002700010920601109209011092010110920001E2
:1002800084E680930201909101018091000198170A
:10029000D9F0809109018F5F80930901809101015C
:1002A0008093000184E68093020120910601309141
:1002B00007014AE0429FC001439F900D1124909393
:1002C0000501809304010895809102016AE00E9473
:1002D000CD01292F8091040190910501820F911D7C
:1002E000909307018093060108951F920F920FB615
:1002F0000F9211248F934B9B08C081E080930101E2
:10030000809102018150809302018F910F900FBE66
:100310000F901F9018951F920F920FB60F921124F5
:100320008F934A9B07C010920101809102018F5F59
:10033000809302018F910F900FBE0F901F90189520
:100340008091690082608093690080916900886073
:10035000809369008DB383608DBB7894569A8BB17E
:100360008F6B8BB98AB1837E8AB98BB18C618BB963
:1003700084B1876084B985B1887F85B90E945300B4
:100380008AE091E00E946E000E942E018091060199
:10039000909107010E94F400F3CF991B79E004C00B
:1003A000991F961708F0961B881F7A95C9F78095B4
:1003B000089597FB072E16F4009407D077FD09D017
:1003C0000E94ED0107FC05D03EF4909581959F4F6A
:1003D0000895709561957F4F0895AA1BBB1B51E14D
:1003E00007C0AA1FBB1FA617B70710F0A61BB70BA5
:1003F000881F991F5A95A9F780959095BC01CD014A
:060400000895F894FFCFFF
:04040600010164008C
:00000001FF
