:100000000C942B000C9453000C9453000C9453004C
:100010000C9453000C9453000C9453000C94530014
:100020000C9453000C9453000C9453000C94530004
:100030000C9453000C9453000C9453000C945300F4
:100040000C9453000C9453000C9453000C945300E4
:100050000C945300060311241FBECFE5D4E0DEBF8D
:10006000CDBF12E0A0E6B0E0E0E5FEE002C0059002
:100070000D92AC3DB107D9F713E0ACEDB2E001C091
:100080001D92AE3AB107E1F710E0C6E5D0E004C03A
:100090002297FE010E94C803C435D107C9F70E9408
:1000A000A2010C9426070C94000097B18770987FEA
:1000B000892B87B9369A3699FECF84B195B10895C8
:1000C00007C0EFECF7E03197F1F700C000000197AF
:1000D0000097B9F7089595B315BA613079F49598FA
:1000E000969A85BB949A8AE18A95F1F700C0949814
:1000F0008AE18A95F1F700C0949A0895662371F415
:100100009598969885BB949A8AE18A95F1F700C0F4
:1001100094988AE18A95F1F700C0949A089561E075
:100120000E946B000895806B60E00E946B00089550
:10013000CF93DF93C82FD0E0CE0124E0959587952B
:100140002A95E1F7806160E00E946B009E012F70AC
:10015000822F60E00E946B00DF91CF910895A1E0B3
:10016000B0E0E5EBF0E00C948B03843168F466308A
:1001700058F4982F990F990F890F69830E9498005E
:100180006981862F0E9493002196E2E00C94A703D8
:10019000A1E0B0E0EEECF0E00C9481035C01FC0126
:1001A00001900020E9F77F010894E108F108E81ABE
:1001B000F90AF5E1EF16F1041CF044E1E42EF12C0C
:1001C00080EE60E00E946B00CC24DD2425E024C09A
:1001D000F50101915F010052802F90E04C01880CE5
:1001E000991C880C991C880E991E86EF90E0880E49
:1001F000991E029F8001112405501F4FF401819127
:100200004F0161E029830E946B00298180169106CD
:10021000A9F70894C11CD11CCE14DF04CCF28EEED9
:1002200060E00E946B0080E00E9498002196ECE064
:100230000C949D039C018531910574F0FC01E453FD
:10024000FD4F81E090E04081442311F480E090E094
:10025000203531055CF402C080E090E0F901E05205
:10026000FD4F41E050E06489662311F440E050E026
:10027000840F951F2230310544F0F901E152FD4F02
:1002800041E050E06081662311F440E050E0480F07
:10029000591F2336310544F4F901E052FD4F81E046
:1002A00090E06181662311F480E090E0840F951F57
:1002B0002431310544F0F901E353FD4F61E070E072
:1002C0004081442311F460E070E0680F791F26310B
:1002D000310544F0F901E553FD4F41E050E08081E4
:1002E000882311F440E050E0460F571F21353105B7
:1002F00044F4F901E052FD4F81E090E06389662308
:1003000011F480E090E0840F951F2F34310544F400
:1003100020523D4F41E050E0F9012589222311F49C
:1003200040E050E0840F951F0895DC01AC59BF4FA9
:10033000E4E4F3E002C08E91829382E0E03EF807AD
:10034000D1F70895A5E1B0E0E8EAF1E00C947C0370
:100350000FEF08C0063030F4E02FF0E0EA52FD4F16
:10036000108101C010E0E12EE294BFE0EB2286EBA9
:1003700060E00E946B008E2D806160E00E946B0047
:10038000812F8F7060E00E946B0080E061E00E942E
:100390006B000F5F0630F1F680E487B987E886B915
:1003A00080E00E9455000E941504B89AE8EAF3E044
:1003B00001C0129243E0E434F407D9F782E990E0F7
:1003C0000E94950181E960E00E946B0080E060E09E
:1003D0000E94AF0084E68093AD03A4E1AA2EB12C65
:1003E000DD24D394F4E63F2E7E010894E11CF11C39
:1003F000E0E68E2EE0E09E2E7BE6672E70E0772E04
:1004000062E0462E512CEDC010E0C801B5010E94FB
:1004100068039093DD028093DC02009789F42091B9
:10042000DE023091DF022F5F3F4F3093DF022093D7
:10043000DE022530310524F01092DF021092DE0238
:100440006091DE020E94AF00F801E052FD4F808112
:10045000882381F08FEF0E948F0081E80E948F0037
:1004600081E80E948F0081E80E948F008FEF0E9438
:100470008F000BC000E010E080E061E00E946B00A4
:100480000F5F1F4F05301105B9F7C090AD030C2D5C
:1004900010E0F801E052FD4F8081882351F0C8013F
:1004A0000E941A018230910539F4F801EC5BFC4F8F
:1004B00009C0C8010E941A01F801EC5BFC4F8330AF
:1004C000910511F4D08201C01082CC2009F089C0BE
:1004D00084E493E00E9495013092AD0381E00E9494
:1004E00055008536910538F081E00E9455009695BB
:1004F00087950E94600000EE12E0F80120E08191F3
:1005000081112F5F83E0E434F807C9F72093A80333
:100510003091AA033A3051F08091AB039091AC0333
:10052000A3E0893E9A0714F4B29B6AC01092AA0312
:100530001092AC031092AB030E941004B2010E940F
:10054000680321E0009709F420E0F80121938F016E
:10055000F3E004341F0781F780ED97E00E9460000C
:100560000FC0C09A3F5F3093AA030AC0C09820937F
:10057000A90301969093AC038093AB031092AA0356
:1005800080E065E00E94AF008DB79EB70A970FB676
:10059000F8949EBF0FBE8DBFEDB7FEB73196ADB7D5
:1005A000BEB71296FC92EE92119793828282758268
:1005B00064828091AB039091AC0397838683809192
:1005C000AA0390E0918780870E942004EDB7FEB7D0
:1005D0003A960FB6F894FEBF0FBEEDBFC7010E945A
:1005E000C8008091AD03082F01500093AD0388230C
:1005F00009F00ACF80E090E06596E1E10C94980361
:100600004091A903241709F0B1CFABCFCF93DF936B
:1006100081B3806781BB8FEF84BB8FEF90E7A2E04F
:1006200081509040A040E1F700C0000082EE60E001
:100630000E946B008FEF99E6A8E181509040A040A6
:10064000E1F700C0000081EA60E00E946B0082EAEE
:1006500060E00E946B008CE260E00E946B008EE222
:1006600060E00E946B008FE260E00E946B0086EA0F
:1006700060E00E946B008FE860E00E946B0084EAFB
:1006800060E00E946B008FEA60E00E946B0080E4F3
:1006900060E00E946B0080E060E00E94AF00C0E07C
:1006A000D0E08C2F0E94930089E790E00E94C80060
:1006B0002196C630D105A9F78FEF90E7A2E08150CF
:1006C0009040A040E1F700C00000DF91CF91089575
:1006D00097FB092E07260AD077FD04D043D006D019
:1006E00000201AF4709561957F4F0895F6F7909564
:1006F00081959F4F08952F923F924F925F926F92F4
:100700007F928F929F92AF92BF92CF92DF92EF92A1
:10071000FF920F931F93CF93DF93CDB7DEB7CA1B22
:10072000DB0B0FB6F894DEBF0FBECDBF09942A884D
:10073000398848885F846E847D848C849B84AA84F5
:10074000B984C884DF80EE80FD800C811B81AA8182
:10075000B981CE0FD11D0FB6F894DEBF0FBECDBF4D
:10076000ED010895AA1BBB1B51E107C0AA1FBB1FC7
:10077000A617B70710F0A61BB70B881F991F5A952D
:10078000A9F780959095BC01CD010895EE0FFF1F4C
:100790000590F491E02D0994A0E0B0E0E2EDF3E0E3
:1007A0000C948303EC01688179818A819B816115B6
:1007B00071058105910521F464E279ED8BE597E0FF
:1007C0002DE133EF41E050E00E94E90679018A0112
:1007D00027EA31E440E050E00E94CA065B016C0168
:1007E000C801B7012CEE34EF4FEF5FEF0E94CA064D
:1007F0006A0D7B1D8C1D9D1D97FF04C061507040CC
:1008000080409048688379838A839B837F77CB017C
:10081000CDB7DEB7EAE00C949F030E94CC030895A5
:100820008EE890E00E94CC030895A0E0B0E08093B1
:100830008E0090938F00A0939000B0939100089544
:10084000AEE0B0E0E6E2F4E00C9489030D891E8985
:1008500086E08C831A8309838FEF9FE79E838D83C5
:100860009E01275E3F4FCE0101966F89788DA901C9
:100870000E944304EF81F885E00FF11F10822E964D
:10088000E4E00C94A503ACE0B0E0E9E4F4E00C94FF
:100890007B036C011B018A01FC0117821682838194
:1008A00081FFD1C12E010894411C511CF601938196
:1008B000F10193FD859193FF81911F01882309F434
:1008C000BEC1853239F493FD859193FF81911F015B
:1008D000853229F490E0B6010E944006E7CFEE246D
:1008E000FF2420E02032B0F48B3269F08C3228F4FF
:1008F000803251F0833271F40BC08D3239F0803385
:1009000049F421602CC02260246029C0286027C0DF
:10091000206125C027FD2CC0382F30533A3098F481
:1009200026FF08C08E2D880FE82EEE0CEE0CE80E88
:10093000E30E15C08F2D880FF82EFF0CFF0CF80E5C
:10094000F30E20620CC08E3221F426FD78C12064A3
:1009500006C08C3611F4206802C0883649F4F101D3
:1009600093FD859193FF81911F01882309F0BACFF0
:10097000982F9554933018F09052933028F40C5FD0
:100980001F4FFFE3F9830DC0833631F0833771F0D9
:10099000833509F060C022C0F801808189830E5F31
:1009A0001F4F420171E0A72EB12C16C062E0662EE7
:1009B000712C600E711EF8018080918026FF03C0AB
:1009C0006E2D70E002C06FEF7FEFC4012C870E9494
:1009D00035065C0183012C852F7717C052E0652E08
:1009E000712C600E711EF8018080918026FF03C07B
:1009F0006E2D70E002C06FEF7FEFC4012C870E9464
:100A00002A065C012C852068830123FD20C008C0D4
:100A100080E290E0B6012C870E944006FA942C8573
:100A20008F2D90E0A816B90698F311C0F40127FDA8
:100A3000859127FF81914F0190E0B6012C870E949C
:100A400040062C85F110FA940894A108B108A1146D
:100A5000B10461F7F1C0843611F0893649F527FFFA
:100A600008C0F80160817181828193810C5F1F4F02
:100A700009C0F80160817181882777FD8095982FE2
:100A80000E5F1F4F4FE6B42EB22297FF09C090951C
:100A90008095709561957F4F8F4F9F4FF0E8BF2AEB
:100AA000A2012AE030E00E946C06782E741845C03E
:100AB000853731F43FEEB32EB2222AE030E025C074
:100AC00099EFB92EB2228F36C1F0803720F48835E5
:100AD00009F0B5C00DC0803721F0883709F0AFC0EC
:100AE00002C020E1B22AB4FE0BC084E0B82A08C0DC
:100AF000B4FE09C0E6E0BE2A06C028E030E005C02A
:100B000020E130E002C020E132E0B7FE08C0F80189
:100B100060817181828193810C5F1F4F07C0F80152
:100B20006081718180E090E00E5F1F4FA2010E9402
:100B30006C06782E7418FFE7BF22B6FE0BC02EEFAE
:100B4000B2227E1438F4B4FE07C0B2FC05C08FEEAA
:100B5000B82202C0A72C01C0AE2C8B2D90E0B4FEB1
:100B60000DC0FE01E70DF11D2081203319F4E9EEDF
:100B7000BE2209C0A394B2FE06C004C0867890705D
:100B8000009709F0A3948B2C9924B3FC14C0B0FEF9
:100B90000FC0AF1428F4E72CEF0CEA18AF2C08C0F4
:100BA000E72C06C080E290E0B6010E944006A394C4
:100BB000AF14C0F304C0AF1410F4FA1801C0FF243E
:100BC00084FE0FC080E390E0B6010E94400682FEE2
:100BD0001FC081FE03C088E590E010C088E790E068
:100BE0000DC0C40186789070009791F081FC02C01E
:100BF00080E201C08BE2B7FC8DE290E0B6010E947A
:100C0000400606C080E390E0B6010E944006EA94E8
:100C10007E14C0F37A94F201E70DF11D808190E01B
:100C2000B6010E9440067720A9F706C080E290E056
:100C3000B6010E944006FA94FF20C1F737CEF601B4
:100C40002681378102C02FEF3FEFC9012C96E2E1E8
:100C50000C949703FC010590615070400110D8F787
:100C6000809590958E0F9F1F0895FC0161507040F4
:100C700001900110D8F7809590958E0F9F1F0895D1
:100C80000F931F93CF93DF938C01EB018B8181FF37
:100C90001BC082FF0DC02E813F818C819D81281752
:100CA000390764F4E881F9810193F983E88306C088
:100CB000E885F985802F0995009731F48E819F8111
:100CC00001969F838E8302C00FEF1FEFC801DF9153
:100CD000CF911F910F910895FA01AA27283051F161
:100CE000203181F1E8946F936E7F6E5F7F4F8F4F5D
:100CF0009F4FAF4FB1E03ED0B4E03CD0670F781FBC
:100D0000891F9A1FA11D680F791F8A1F911DA11DA0
:100D10006A0F711D811D911DA11D20D009F46894D9
:100D20003F912AE0269F11243019305D3193DEF681
:100D3000CF010895462F4770405D4193B3E00FD037
:100D4000C9F7F6CF462F4F70405D4A3318F0495D22
:100D500031FD4052419302D0A9F7EACFB4E0A69505
:100D60009795879577956795BA95C9F70097610527
:100D7000710508959B01AC010A2E0694579547957D
:100D800037952795BA95C9F7620F731F841F951F72
:100D9000A01D0895629FD001739FF001829FE00D16
:100DA000F11D649FE00DF11D929FF00D839FF00DEA
:100DB000749FF00D659FF00D9927729FB00DE11D96
:100DC000F91F639FB00DE11DF91FBD01CF01112473
:100DD000089597FB092E05260ED057FD04D014D098
:100DE0000AD0001C38F450954095309521953F4F1E
:100DF0004F4F5F4F0895F6F79095809570956195E8
:100E00007F4F8F4F9F4F0895A1E21A2EAA1BBB1B45
:100E1000FD010DC0AA1FBB1FEE1FFF1FA217B307C6
:100E2000E407F50720F0A21BB30BE40BF50B661FDC
:100E3000771F881F991F1A9469F7609570958095A0
:100E400090959B01AC01BD01CF010895F894FFCFAF
:100E5000257325642C20256420200047616D6520C2
:100E60006F66204C6966653A0020202020202020F3
:100E700020202020202020202020202020000100D1
:100E80000000000000000000000000000000000062
:100E90000000000000000000000000000000010150
:100EA0000001010000000000000000000000000040
:100EB0000000010000000100000000000000000030
:100EC000000000000000000101010000000000001F
:100ED0000000000000000000000000000000000012
:100EE000000000000000000000000000005F0000A3
:100EF0000007000700147F147F14242A7F2A12237E
:100F00001308646236495522500005030000001C96
:100F10002241000041221C00082A1C2A0808083E21
:100F20000808005030000008080808080060600049
:100F30000020100804023E5149453E00427F400017
:100F400042615149462141454B311814127F102707
:100F5000454545393C4A494930017109050336493F
:100F6000494936064949291E0036360000005636E2
:100F7000000000081422411414141414412214080F
:100F8000000201510906324979413E7E1111117E5C
:100F90007F494949363E414141227F4141221C7FE0
:100FA000494949417F090901013E414151327F08C8
:100FB00008087F00417F41002040413F017F081425
:100FC00022417F404040407F0204027F7F0408109E
:100FD0007F3E4141413E7F090909063E4151215E64
:100FE0007F09192946464949493101017F01013FDD
:100FF0004040403F1F2040201F7F2018207F631467
:101000000814630304780403615149454300007FD9
:101010004141020408102041417F00000402010206
:1010200004404040404000010204002054545478E1
:101030007F484444383844444420384444487F3846
:1010400054545418087E090102081454543C7F0873
:1010500004047800447D40002040443D00007F109F
:10106000284400417F40007C041804787C08040474
:101070007838444444387C14141408081414187C38
:101080007C080404084854545420043F4440203C45
:101090004040207C1C2040201C3C4030403C4428E8
:1010A0001028440C5050503C4464544C44000836C2
:1010B000410000007F0000004136080008082A1C9B
:0C10C00008081C2A0808141F2039454E9F
:00000001FF
