:100000000C942B000C9453000C9453000C9453004C
:100010000C9453000C9453000C9453000C94530014
:100020000C9453000C9453000C9453000C94530004
:100030000C9453000C9453000C9453000C945300F4
:100040000C9453000C9453000C9453000C945300E4
:100050000C9453002D0111241FBECFE5D4E0DEBF68
:10006000CDBF12E0A0E6B0E0EAEAF3E002C00590FE
:100070000D92AA35B107D9F712E0AAE5B2E001C0A6
:100080001D92A23DB107E1F710E0C6E5D0E004C043
:100090002297FE010E94CF01C435D107C9F70E9403
:1000A000D5000C94D3010C94000095B315BA6130BF
:1000B00079F49598969A85BB949A8AE18A95F1F796
:1000C00000C094988AE18A95F1F700C0949A089547
:1000D000662371F49598969885BB949A8AE18A95DF
:1000E000F1F700C094988AE18A95F1F700C0949ADC
:1000F0000895806B60E00E9455000895A1E0B0E093
:10010000E4E8F0E00C949C015C01FC01019000200B
:10011000E9F77F010894E108F108E81AF90AF5E126
:10012000EF16F1041CF044E1E42EF12C80EE60E0C7
:100130000E945500CC24DD2425E024C0F501019166
:100140005F010052802F90E04C01880C991C880CB4
:10015000991C880E991E89E790E0880E991E029FCF
:100160008001112402581F4FF40181914F0161E079
:1001700029830E945500298180169106A9F70894C9
:10018000C11CD11CCE14DF04CCF28EEE60E00E94C4
:10019000550080E160E00E94550080E060E00E9430
:1001A00055002196ECE00C94B801EF92FF920F936A
:1001B0001F93CF93DF9380E487B987E886B984E9FA
:1001C00060E00E9455003FC027B1287F27B9369ACA
:1001D0003699FECF24B135B1FC01E65AFD4F207FA0
:1001E00031E009F430E0308301968837910564F3FB
:1001F000C0E0D0E02BC08C2F0E947900C80164E0E1
:10020000959587956A95E1F7806160E00E945500B9
:10021000802F8F7060E00E945500F7018081882355
:1002200019F080E690E002C082E690E00E947E0035
:100230000B5F1F4FEC0EFD1E04361105E1F62196F3
:10024000C630D10519F480E090E0CFCF5AE5E52E15
:1002500052E0F52E00E010E0CECFCF93DF9381B3D4
:10026000886781BB8FEF84BB93988FEF90E7A2E004
:1002700081509040A040E1F700C00000939A8FEFBA
:1002800090E7A2E081509040A040E1F700C000005C
:1002900082EE60E00E9455008FEF99E6A8E1815060
:1002A0009040A040E1F700C0000081EA60E00E94B9
:1002B000550082EA60E00E9455008CE260E00E94F6
:1002C00055008EE260E00E9455008FE260E00E94DF
:1002D000550086EA60E00E9455008FE860E00E94C9
:1002E000550084EA60E00E9455008FEA60E00E94B9
:1002F000550080E460E00E945500C0E0D0E08C2F03
:100300000E94790084E690E00E947E002196C6302B
:10031000D105A9F78FEF90E7A2E081509040A0406F
:10032000E1F700C00000DF91CF9108952F923F9236
:100330004F925F926F927F928F929F92AF92BF92F5
:10034000CF92DF92EF92FF920F931F93CF93DF93A1
:10035000CDB7DEB7CA1BDB0B0FB6F894DEBF0FBEFE
:10036000CDBF09942A88398848885F846E847D844B
:100370008C849B84AA84B984C884DF80EE80FD804D
:100380000C811B81AA81B981CE0FD11D0FB6F894C3
:10039000DEBF0FBECDBFED010895EE0FFF1F05902C
:0A03A000F491E02D0994F894FFCFCA
:1003AA003100200020202020202020202020202072
:1003BA002020202020202020000000000000000033
:1003CA005F00000007000700147F147F14242A7FAF
:1003DA002A12231308646236495522500005030085
:1003EA0000001C2241000041221C00082A1C2A0885
:1003FA0008083E08080050300000080808080800ED
:10040A006060000020100804023E5149453E004247
:10041A007F400042615149462141454B311814122F
:10042A007F1027454545393C4A494930017109053C
:10043A00033649494936064949291E00363600001D
:10044A0000563600000008142241141414141441F2
:10045A00221408000201510906324979413E7E11EF
:10046A0011117E7F494949363E414141227F41412E
:10047A00221C7F494949417F090901013E414151F5
:10048A00327F0808087F00417F41002040413F0138
:10049A007F081422417F404040407F0204027F7F50
:1004AA000408107F3E4141413E7F090909063E4149
:1004BA0051215E7F09192946464949493101017F7F
:1004CA0001013F4040403F1F2040201F7F2018204D
:1004DA007F63140814630304780403615149454394
:1004EA0000007F4141020408102041417F000004BE
:1004FA00020102044040404040000102040020542E
:10050A005454787F48444438384444442038444456
:10051A00487F3854545418087E0901020814545468
:10052A003C7F0804047800447D40002040443D009C
:10053A00007F10284400417F40007C041804787C26
:10054A000804047838444444387C14141408081401
:10055A0014187C7C080404084854545420043F446A
:10056A0040203C4040207C1C2040201C3C40304025
:10057A003C44281028440C5050503C4464544C4489
:10058A00000836410000007F0000004136080008DC
:0A059A00082A1C08081C2A080800A3
:00000001FF
