:100000000C941B010C943B010C943B010C943B01A0
:100010000C943B010C943B010C943B010C943B0170
:100020000C943B010C943B010C943B010C943B0160
:100030000C943B010C943B010C943B010C943B0150
:100040000C943B010C943B010C943B010C943B0140
:100050000C943B01000000000000005F000000075E
:10006000000700147F147F14242A7F2A1223130808
:10007000646236495522500005030000001C2241ED
:10008000000041221C00082A1C2A0808083E080813
:1000900000503000000808080808006060000020D8
:1000A000100804023E5149453E00427F4000426133
:1000B0005149462141454B311814127F10274545BF
:1000C00045393C4A494930017109050336494949D6
:1000D00036064949291E0036360000005636000013
:1000E00000081422411414141414412214080002AC
:1000F00001510906324979413E7E1111117E7F4935
:100100004949363E414141227F4141221C7F4949B4
:1001100049417F090901013E414151327F080808E8
:100120007F00417F41002040413F017F0814224170
:100130007F404040407F0204027F7F0408107F3EE2
:100140004141413E7F090909063E4151215E7F0937
:10015000192946464949493101017F01013F404083
:10016000403F1F2040201F7F2018207F6314081469
:10017000630304780403615149454300007F414112
:10018000020408102041417F0000040201020440E3
:1001900040404040000102040020545454787F48FD
:1001A0004444383844444420384444487F38545404
:1001B0005418087E090102081454543C7F080404B2
:1001C0007800447D40002040443D00007F102844DA
:1001D00000417F40007C041804787C0804047838CF
:1001E000444444387C14141408081414187C7C0803
:1001F0000404084854545420043F4440203C4040E8
:10020000207C1C2040201C3C4030403C44281028CE
:10021000440C5050503C4464544C44000836410057
:1002200000007F0000004136080008082A1C08086A
:100230001C2A08086B0311241FBECFE5D4E0DEBFE3
:10024000CDBF10E0A0E6B0E0E0EAF9E002C0059022
:100250000D92A038B107D9F712E0C6E3D2E004C08E
:100260002297FE010E941A04C433D107C9F70E94E5
:1002700025030C94CE040C940000949A8AE18A958C
:10028000F1F700C094988AE18A95F1F700C0949A3A
:10029000089595B315BA613079F49598969A85BB0F
:1002A000949A8AE18A95F1F700C094988AE18A9538
:1002B000F1F700C0949A0895662371F49598969882
:1002C00085BB949A8AE18A95F1F700C094988AE1F7
:1002D0008A95F1F700C0949A0895806B60E00E94BF
:1002E00049010895CF93DF93C82FD0E0CE0124E0D9
:1002F000959587952A95E1F7806160E00E94490114
:100300009E012F70822F60E00E944901DF91CF9102
:100310000895A1E0B0E0EFE8F1E00C94DD03663071
:1003200008F066E0843608F084E669830E94720172
:100330006981862F0E946D012196E2E00C94F903F9
:1003400088EC90E006C0EFECF7E03197F1F700C0E1
:1003500000000197FFEF8F3F9F07A9F708950F93C4
:100360001F93162F843698F5603388F56695669549
:1003700066950E94890180EE60E00E94490114BAEE
:1003800013BA959A969A0E943D018AE18A95F1F7EF
:1003900000C00E943D018AE18A95F1F700C003B3D5
:1003A0008FEF84BB802F61E00E9449018EEE60E0F8
:1003B0000E944901177021E030E002C0220F331F74
:1003C0001A95E2F7802F822B61E00E9449011F916C
:1003D0000F910895A0E0B0E0E0EFF1E00C94CE03BF
:1003E000882E962EC42E042F10E0C1E0D0E0C01B52
:1003F000D10BEE24FF24E01AF10AEE0CFF1C6C2D49
:10040000690D0E94AF01692D6C19882D0E94AF0102
:100410008C2D880D692D0E94AF01882D8C19692DB6
:100420000E94AF01CC24DD2431E0A32EB12C46C0C4
:100430001C161D0644F40150104082E090E0E80EC6
:10044000F91ECE0DDF1D0894C11CD11C82E090E086
:10045000A80EB91ECA0DDB1D402E480C5C2C590C91
:10046000842D652D0E94AF01382C301A832D652D07
:100470000E94AF01592C5C18842D652D0E94AF019C
:10048000832D652D0E94AF015C2C580C402E490C29
:10049000852D642D0E94AF01982D9C19692E892FFE
:1004A000642D0E94AF01892D801B782E852D672D2C
:1004B0000E94AF01862D672D0E94AF01C016D106A4
:1004C0000CF4B6CFCDB7DEB7E1E10C94EA03A0E0BF
:1004D000B0E0EDE6F2E00C94D70380E060E00E942B
:1004E0008901C0E0D0E08C2F0E946D0180EE60E0B9
:1004F0000E94490160E6C62E60E0D62EF601819189
:100500006F01805200E010E090E07C01EE0CFF1CD7
:10051000EE0CFF1CE80EF91EF801EE0DFF1DEC5A63
:10052000FF4F849161E00E9449010F5F1F4F05302A
:10053000110591F7F4E7CF16F0E0DF06F9F68EEE3D
:1005400060E00E94490180E00E9472012196C6305D
:10055000D10549F6CDB7DEB7E8E00C94F303AAE085
:10056000B0E0E5EBF2E00C94D303A82E0E94620405
:1005700068EC70E00E94BA0308EC10E005C00E942D
:100580006204B8010E94BA038230C8F3FE013196BA
:100590009AE0DF011D929A95E9F7198298E19A8312
:1005A00024E12B839C8328E22D839E832CE32F83DD
:1005B000988720E529879A87AA2011F1EE24FF2445
:1005C000C82EDD245F01EBE08E2E912C8C0E9D1E3B
:1005D00012C0F801808161814E2D0E94EA010E5FF8
:1005E0001F4F08151905A9F70E94A0010E94670274
:1005F0000894E11CF11CEC14FD041CF58501E9CF05
:10060000E82EFF246F017BE0A72EB12CAC0EBD1E9F
:1006100016C0D8018C9111966C914E2D0E94EA0162
:100620000E5F1F4F0A151B05A1F70E94A0010E9433
:1006300067020894E108F1081E141F0414F48601EF
:10064000E8CF2A96ECE00C94EF03FF920F931F93F0
:100650000E94670286EA60E00E9449011FEF08C01D
:10066000163030F4E12FF0E0E758FF4F008101C071
:1006700000E0F02EF294FFE0FF2286EB60E00E94A3
:1006800049018F2D806160E00E944901802F8F70A9
:1006900060E00E94490180E061E00E9449011F5F23
:1006A0001630F1F680E960E00E94490180E487B9E4
:1006B00087E886B987B1887F87B9369A3699FECFA1
:1006C00084B195B10E94670481E00E94AF0280E08E
:1006D0000E94AF02F9CF81B3806781BB8FEF84BBEB
:1006E0008FEF90E7A2E081509040A040E1F700C07A
:1006F000000082EE60E00E9449018FEF99E6A8E1D8
:1007000081509040A040E1F700C0000081EA60E025
:100710000E94490182EA60E00E9449018CE260E0A7
:100720000E9449018EE260E00E9449018FE260E090
:100730000E94490186EA60E00E9449018FE860E07A
:100740000E94490184EA60E00E9449018FEA60E06A
:100750000E94490180E460E00E9449010E94670212
:100760008FEF90E7A2E081509040A040E1F700C0F9
:100770000000089597FB092E07260AD077FD04D0C4
:1007800043D006D000201AF4709561957F4F0895EC
:10079000F6F7909581959F4F08952F923F924F9233
:1007A0005F926F927F928F929F92AF92BF92CF9201
:1007B000DF92EF92FF920F931F93CF93DF93CDB70A
:1007C000DEB7CA1BDB0B0FB6F894DEBF0FBECDBF82
:1007D00009942A88398848885F846E847D848C8453
:1007E0009B84AA84B984C884DF80EE80FD800C815C
:1007F0001B81AA81B981CE0FD11D0FB6F894DEBF3F
:100800000FBECDBFED010895AA1BBB1B51E107C070
:10081000AA1FBB1FA617B70710F0A61BB70B881F90
:10082000991F5A95A9F780959095BC01CD0108951F
:10083000EE0FFF1F0590F491E02D0994A0E0B0E0C9
:10084000E4E2F4E00C94D503EC01688179818A81BB
:100850009B81611571058105910521F464E279EDB3
:100860008BE597E02DE133EF41E050E00E949104E9
:1008700079018A0127EA31E440E050E00E947204E5
:100880005B016C01C801B7012CEE34EF4FEF5FEF55
:100890000E9472046A0D7B1D8C1D9D1D97FF04C074
:1008A0006150704080409048688379838A839B833D
:1008B0007F77CB01CDB7DEB7EAE00C94F1030E945D
:1008C0001E04089585E790E00E941E040895A0E0AC
:1008D000B0E08093750090937600A0937700B0937A
:1008E00078000895629FD001739FF001829FE00D10
:1008F000F11D649FE00DF11D929FF00D839FF00D9F
:10090000749FF00D659FF00D9927729FB00DE11D4A
:10091000F91F639FB00DE11DF91FBD01CF01112427
:10092000089597FB092E05260ED057FD04D014D04C
:100930000AD0001C38F450954095309521953F4FD2
:100940004F4F5F4F0895F6F790958095709561959C
:100950007F4F8F4F9F4F0895A1E21A2EAA1BBB1BFA
:10096000FD010DC0AA1FBB1FEE1FFF1FA217B3077B
:10097000E407F50720F0A21BB30BE40BF50B661F91
:10098000771F881F991F1A9469F760957095809555
:1009900090959B01AC01BD01CF010895F894FFCF64
:1009A0002020202020202020202020202020202047
:1009B000202020200001000000141F2039454E0097
:00000001FF
