:100000000C9473000C94A0000C94A0000C94A0001D
:100010000C94A0000C94A0000C94A0000C94A000E0
:100020000C94A0000C94A0000C94A0000C94A000D0
:100030000C94A0000C94A0000C94A0000C94A000C0
:100040000C94A0000C94A0000C94A0000C94A000B0
:100050000C94A0000C94A0000C94A0000C94090235
:100060000C94A0000C941B030C9463040C94A0004B
:100070000C94A0000C94A0000C94A0000C94A00080
:100080000C94A0000C94A0000C94A0000C94A00070
:100090000C945B030C94A2040C94A0000C94A0009C
:1000A0000C94A0000C94A0000C94A0000C94A00050
:1000B0000C94A0000C94A0000C94A0000C94A00040
:1000C0000C94A0000C94A0000C94A0000C949B0332
:1000D0000C94E1040C94A0000C94DB030C94200518
:1000E0000C94A000900611241FBECFEFD1E2DEBF1A
:1000F000CDBF00E00CBF12E0A0E0B2E0E2E4F2E12C
:1001000000E00BBF02C007900D92AE35B107D9F7E2
:100110001BBE15E0AEE5B2E001C01D92A331B107F0
:10012000E1F710E0C6EED0E004C02297FE010E9485
:100130001B09C43ED107C9F70E94C6070C94A20050
:100140000C940000F8940C941F090F931F93FC016A
:100150008FEF8093070108E011E0D8016C93A08134
:10016000B1812C9141E050E0CA01048002C0880FA7
:10017000991F0A94E2F7809582238C93A081B18124
:100180002C91CA01058002C0880F991F0A94E2F7DA
:10019000282B2C93A081B1812C91CA01058002C02B
:1001A000880F991F0A94E2F7809582238C93A0818F
:1001B000B1818C91048002C0440F551F0A94E2F76C
:1001C000842B8C93F80110821F910F910895FC01EC
:1001D000A281B3816C9121E030E0C901048002C0AA
:1001E000880F991F0A94E2F7A901058002C0440F05
:1001F000551F0A94E2F7842B862B8C93A081B18142
:100200004C91C901048002C0880F991F0A94E2F73B
:10021000482B4C93A081B1818C91058002C0220FA4
:10022000331F0A94E2F7209528232C93CF0160E036
:100230000E94A50008951F93682F192F87E492E06C
:100240000E94A50081E492E0612F0E94A5001F9109
:100250000895FF920F931F93F62E07E011E02FEF02
:10026000F80120830E941B0115981398149AF092AC
:100270000801139A159AF80110821F910F91FF90AF
:1002800008950E941B011598139A14981092070163
:1002900080910601159A149A089508951F93CF939B
:1002A000DF93182FEB010AC0CE01612F0E942901B4
:1002B00061E070E080E090E00E945F02CE010E9469
:1002C0004101811789F7DF91CF911F910895CF9355
:1002D000DF938BE894E040E855E260E070E00E9434
:1002E0005F0581B1886381B9159A149A139A81E4E4
:1002F00092E00E94E70087E492E00E94E7008BE82A
:1003000094E060E072E00E94C2080E945102AB01DA
:10031000BC0140935E0250935F0260936002709351
:1003200061028BE894E02AE030E00E94AE08C0E071
:10033000D0E08C2FBE010E944E0121968FE7CF3F67
:10034000D807B9F70E94510220915E0230915F02F6
:100350004091600250916102621B730B840B950BFC
:1003600060935E0270935F028093600290936102DB
:100370008BE894E069E172E00E94C20840915E025D
:1003800050915F0260916002709161028BE894E08D
:100390002AE030E00E94AE088BE894E068E272E068
:1003A0000E94C508C0E0D0E0CE010E944101219624
:1003B0008FE7CF3FD807C1F70E94510220915E021C
:1003C00030915F024091600250916102621B730B99
:1003D000840B950B60935E0270935F0280936002C2
:1003E000909361028BE894E062E372E00E94C2089D
:1003F00040915E0250915F026091600270916102D3
:100400008BE894E02AE030E00E94AE08DF91CF91C3
:1004100008951F920F920FB60F9211242F933F93BE
:100420008F939F93AF93BF938091660290916702E1
:10043000A0916802B091690230916A020196A11DF3
:10044000B11D232F2D5F2D3720F02D570196A11DB3
:10045000B11D20936A028093660290936702A09375
:100460006802B09369028091620290916302A09148
:100470006402B09165020196A11DB11D80936202D4
:1004800090936302A0936402B0936502BF91AF9111
:100490009F918F913F912F910F900FBE0F901F90C2
:1004A00018958FB7F89420916602309167024091B9
:1004B0006802509169028FBFB901CA0108959B017A
:1004C000AC017FB7F8948091620290916302A09191
:1004D0006402B091650266B5A89B05C06F3F19F034
:1004E0000196A11DB11D7FBFBA2FA92F982F882774
:1004F000860F911DA11DB11D62E0880F991FAA1FD3
:10050000BB1F6A95D1F7BC012DC0FFB7F89480914D
:10051000620290916302A0916402B0916502E6B517
:10052000A89B05C0EF3F19F00196A11DB11DFFBFAB
:10053000BA2FA92F982F88278E0F911DA11DB11DAD
:10054000E2E0880F991FAA1FBB1FEA95D1F7861B0F
:10055000970B885E9340C8F2215030404040504095
:1005600068517C4F211531054105510571F60895FB
:10057000789484B5826084BD84B5816084BD85B57E
:10058000826085BD85B5816085BDEEE6F0E0808145
:1005900081608083E1E8F0E0108280818260808366
:1005A000808181608083E0E8F0E0808181608083E9
:1005B000E1EBF0E0808184608083E0EBF0E080811B
:1005C00081608083E1E9F0E08081826080838081C6
:1005D00081608083E0E9F0E0808181608083E1EAEE
:1005E000F0E0808182608083808181608083E0EAA6
:1005F000F0E0808181608083E1E2F1E080818260CF
:100600008083808181608083E0E2F1E0808181608D
:100610008083EAE7F0E0808184608083808182606B
:100620008083808181608083808180688083109254
:10063000C100089508951F920F920FB60F920BB646
:100640000F9211242F933F934F938F939F93EF9388
:10065000FF938091C00082FD1DC04091C600209193
:10066000AB023091AC022F5F3F4F2F7330708091FF
:10067000AD029091AE022817390771F0E091AB02FC
:10068000F091AC02E559FD4F40833093AC022093CA
:10069000AB0202C08091C600FF91EF919F918F91B4
:1006A0004F913F912F910F900BBE0F900FBE0F9067
:1006B0001F90189508951F920F920FB60F920BB6C8
:1006C0000F9211242F933F934F938F939F93EF9308
:1006D000FF938091C80082FD1DC04091CE00209103
:1006E0003303309134032F5F3F4F2F73307080916D
:1006F0003503909136032817390771F0E0913303E1
:10070000F0913403ED50FD4F408330933403209338
:10071000330302C08091CE00FF91EF919F918F91A2
:100720004F913F912F910F900BBE0F900FBE0F90E6
:100730001F90189508951F920F920FB60F920BB647
:100740000F9211242F933F934F938F939F93EF9387
:10075000FF938091D00082FD1DC04091D600209172
:10076000BB033091BC032F5F3F4F2F7330708091DC
:10077000BD039091BE032817390771F0E091BB03C8
:10078000F091BC03E558FC4F40833093BC032093A9
:10079000BB0302C08091D600FF91EF919F918F9192
:1007A0004F913F912F910F900BBE0F900FBE0F9066
:1007B0001F90189508951F920F920FB60F920BB6C7
:1007C0000F9211242F933F934F938F939F93EF9307
:1007D000FF938091300182FD1DC040913601209130
:1007E0004304309144042F5F3F4F2F73307080914A
:1007F0004504909146042817390771F0E0914304AD
:10080000F0914404ED5FFB4F408330934404209308
:10081000430402C080913601FF91EF919F918F9127
:100820004F913F912F910F900BBE0F900FBE0F90E5
:100830001F901895E0919704F0919804E05CFF4FA9
:100840008191919120813181821B930B8F739070E4
:10085000892B11F00E941A03E091B904F091BA04B7
:10086000E05CFF4F8191919120813181821B930B3C
:100870008F739070892B11F00E945A03E091DB0472
:10088000F091DC04E05CFF4F8191919120813181F6
:10089000821B930B8F739070892B11F00E949A0327
:1008A000E091FD04F091FE04E05CFF4F8191919195
:1008B00020813181821B930B8F739070892B11F0F3
:1008C0000E94DA0308951F920F920FB60F920BB693
:1008D0000F9211242F933F938F939F93EF93FF9346
:1008E0002091EF023091F0028091F1029091F2029A
:1008F0002817390731F48091C1008F7D8093C100A2
:1009000014C0E091F102F091F202E155FD4F208117
:100910008091F1029091F20201968F739070909302
:10092000F2028093F1022093C600FF91EF919F9114
:100930008F913F912F910F900BBE0F900FBE0F9094
:100940001F9018951F920F920FB60F920BB60F9231
:1009500011242F933F938F939F93EF93FF932091B5
:100960007703309178038091790390917A03281767
:10097000390731F48091C9008F7D8093C90014C07C
:10098000E0917903F0917A03E95CFC4F208180913A
:10099000790390917A0301968F73907090937A0304
:1009A000809379032093CE00FF91EF919F918F91D7
:1009B0003F912F910F900BBE0F900FBE0F901F9085
:1009C00018951F920F920FB60F920BB60F9211242B
:1009D0002F933F938F939F93EF93FF932091FF0368
:1009E0003091000480910104909102042817390786
:1009F00031F48091D1008F7D8093D10014C0E091BB
:100A00000104F0910204E154FC4F20818091010423
:100A10009091020401968F739070909302048093DA
:100A200001042093D600FF91EF919F918F913F9108
:100A30002F910F900BBE0F900FBE0F901F90189527
:100A40001F920F920FB60F920BB60F9211242F9395
:100A50003F938F939F93EF93FF932091870430915F
:100A600088048091890490918A042817390731F409
:100A7000809131018F7D8093310114C0E091890410
:100A8000F0918A04E95BFB4F208180918904909169
:100A90008A0401968F73907090938A0480938904DE
:100AA00020933601FF91EF919F918F913F912F916C
:100AB0000F900BBE0F900FBE0F901F901895AF9226
:100AC000BF92DF92EF92FF920F931F93CF93DF932A
:100AD000EC017A018B01DD24403081EE580780E083
:100AE000680780E0780711F0DD24D39491E0A92E07
:100AF000B12CEC89FD89DD2069F0C50108A002C098
:100B0000880F991F0A94E2F7808360E079E08DE313
:100B100090E005C0108260E874E88EE190E0A801E2
:100B200097010E94F70821503040404050405695B0
:100B300047953795279580E12030380720F0DD2054
:100B400011F0DD24D6CFE889F9893083EA89FB8961
:100B5000208319A2EE89FF89408121E030E0C9019C
:100B60000C8C02C0880F991F0A94E2F7482B40832F
:100B7000EE89FF894081C9010D8C02C0880F991F41
:100B80000A94E2F7482B4083EE89FF894081C9012E
:100B90000E8C02C0880F991F0A94E2F7482B4083FD
:100BA000EE89FF8980810F8C02C0220F331F0A94C7
:100BB000E2F7209528232083DF91CF911F910F9199
:100BC000FF90EF90DF90BF90AF900895DC011C96EE
:100BD000ED91FC911D97E05CFF4F21913191808157
:100BE0009181281B390B2F733070C9010895DC01E6
:100BF0001C96ED91FC911D97E05CFF4F20813181A7
:100C0000E054F040DF01AE5BBF4F8D919C91119796
:100C10002817390719F42FEF3FEF07C08D919C91EA
:100C2000E80FF91F8081282F30E0C9010895DC0109
:100C30001C96ED91FC911D97E05CFF4F2081318166
:100C4000E054F040DF01AE5BBF4F8D919C91119756
:100C50002817390719F42FEF3FEF10C08D919C91A1
:100C60001197E80FF91F20818D919C9111970196A2
:100C70008F73907011969C938E9330E0C901089504
:100C8000DC0191968C919197882339F05496ED91DF
:100C9000FC915597808186FFF9CF91961C9208951B
:100CA000CF93DF93EC01EE85FF85E05CFF4F208161
:100CB0003181E054F0402F5F3F4F2F733070DF01E0
:100CC000AE5BBF4F8D919C91119728173907D1F3D7
:100CD000E05CFF4F80819181E054F040E80FF91F04
:100CE0006083EE85FF85E05CFF4F31832083EE89D2
:100CF000FF89208181E090E00F8C02C0880F991F4E
:100D00000A94E2F7282B208381E089A3EC89FD89EE
:100D100080818064808381E090E0DF91CF910895AD
:100D20001F9310928E0410928D0428EE33E040E061
:100D300050E020938F04309390044093910450939B
:100D4000920461E572E070938C0460938B048BE6EF
:100D500092E090939804809397048FEA92E09093A6
:100D60009A048093990485EC90E090939C0480937E
:100D70009B0484EC90E090939E0480939D0480EC0F
:100D800090E09093A00480939F0481EC90E0909376
:100D9000A2048093A10482EC90E09093A404809339
:100DA000A30486EC90E09093A6048093A50414E03D
:100DB0001093A704B3E0B093A804A7E0A093A904FC
:100DC000F5E0F093AA04E1E0E093AB041092B004E4
:100DD0001092AF042093B1043093B2044093B30453
:100DE0005093B4047093AE046093AD0483EF92E02B
:100DF0009093BA048093B90487E393E09093BC0482
:100E00008093BB048DEC90E09093BE048093BD046E
:100E10008CEC90E09093C0048093BF0488EC90E049
:100E20009093C2048093C10489EC90E09093C40431
:100E30008093C3048AEC90E09093C6048093C50429
:100E40008EEC90E09093C8048093C7041093C9047B
:100E5000B093CA04A093CB04F093CC04E093CD04E8
:100E60001092D2041092D1042093D3043093D4046E
:100E70004093D5045093D6047093D0046093CF046C
:100E80008BE793E09093DC048093DB048FEB93E09B
:100E90009093DE048093DD0485ED90E09093E00470
:100EA0008093DF0484ED90E09093E2048093E1046A
:100EB00080ED90E09093E4048093E30481ED90E072
:100EC0009093E6048093E50482ED90E09093E8042B
:100ED0008093E70486ED90E09093EA048093E90420
:100EE0001093EB04B093EC04A093ED04F093EE04A4
:100EF000E093EF041092F4041092F3042093F504AD
:100F00003093F6044093F7045093F8047093F2047E
:100F10006093F10483E094E09093FE048093FD04D9
:100F200087E494E0909300058093FF0485E391E0CB
:100F3000909302058093010584E391E0909304056A
:100F40008093030580E391E0909306058093050567
:100F500081E391E0909308058093070582E391E097
:100F600090930A058093090586E391E090930C0520
:100F700080930B0510930D05B0930E05A0930F05FC
:100F8000F0931005E09311051F910895CF93DF931F
:100F90000E94B8020E946701CAE1D4E00E944D019C
:100FA0002097E1F30E941A04F9CFCF92DF92EF92DB
:100FB000FF920F931F93CF93DF937C016B018A0104
:100FC000C0E0D0E00FC0D6016D916D01D701ED9169
:100FD000FC910190F081E02DC7011995C80FD91F30
:100FE000015010400115110571F7CE01DF91CF912D
:100FF0001F910F91FF90EF90DF90CF900895EF92A7
:10100000FF920F931F938C01DC01ED91FC910190F5
:10101000F081E02D6DE019957C01D801ED91FC91F6
:101020000190F081E02DC8016AE019959C012E0D18
:101030003F1DC9011F910F91FF90EF900895CF932D
:10104000DF93EC016115710519F420E030E00FC069
:10105000DB010D900020E9F71197A61BB70BE88183
:10106000F9810280F381E02DAD0119959C01C90140
:10107000DF91CF9108954F925F927F928F929F92CE
:10108000AF92BF92CF92DF92EF92FF920F931F9396
:10109000DF93CF93CDB7DEB7A1970FB6F894DEBF3D
:1010A0000FBECDBF2C01742ECB01223008F42AE0F4
:1010B00019A231E2C32ED12CCC0EDD1E822E992432
:1010C000AA24BB24672D752FA50194010E94F7085F
:1010D00079018A01C801B701A50194010E94D808CD
:1010E000472D461B0894C108D1084A3014F4405DCE
:1010F00001C0495CF6014083E114F10401051105CA
:1011000021F07E2C5F2DC801DDCFC201B6010E9407
:101110001F08A1960FB6F894DEBF0FBECDBFCF91CA
:10112000DF911F910F91FF90EF90DF90CF90BF90D4
:10113000AF909F908F907F905F904F900895DC01CB
:101140002115310541F4ED91FC910190F081E02DE4
:10115000642F199508950E943B080895EF92FF921D
:101160000F931F937C010E949F088C01C7010E946E
:10117000FF079C01200F311FC9011F910F91FF90A4
:10118000EF9008950E941F080895EF92FF920F9329
:101190001F937C010E941F088C01C7010E94FF075A
:1011A000080F191FC8011F910F91FF90EF9008952C
:1011B000629FD001739FF001829FE00DF11D649F3B
:1011C000E00DF11D929FF00D839FF00D749FF00DC7
:1011D000659FF00D9927729FB00DE11DF91F639F68
:1011E000B00DE11DF91FBD01CF0111240895A1E249
:1011F0001A2EAA1BBB1BFD010DC0AA1FBB1FEE1F91
:10120000FF1FA217B307E407F50720F0A21BB30BDB
:10121000E40BF50B661F771F881F991F1A9469F757
:1012200060957095809590959B01AC01BD01CF01B3
:101230000895EE0FFF1F0590F491E02D1994F89496
:02124000FFCFDE
:1012420077726974696E672063757272656E742055
:101252006D696C6C69733A200077726974696E67A4
:1012620020746F6F6B3A200052656164696E673A51
:10127200200072656164696E6720746F6F6B3A203B
:1012820000220021000002220021000102000000D1
:0E129200005006D507E6051706F705400600D2
:00000001FF
