:100000000C942A000C9434000C9434000C943400AA
:100010000C9434000C9434000C9434000C94340090
:100020000C9434000C9434000C9434000C94340080
:100030000C9434000C9434000C9434000C94340070
:100040000C9434000C9434000C9434000C94340060
:100050000C94340011241FBECFE5D4E0DEBFCDBF29
:100060000E9436000C9447000C9400008EB583600B
:100070008EBDB89A21E08CB59DB53DEF883E9307C3
:10008000D0F388B3822788BB1DBC1CBCF4CFF89486
:02009000FFCFA0
:00000001FF
