:100000000C942A000C9434000C9434000C943400AA
:100010000C9434000C9434000C9434000C94340090
:100020000C9434000C9434000C9434000C94340080
:100030000C9434000C9434000C9434000C94340070
:100040000C9434000C9434000C9434000C94340060
:100050000C94340011241FBECFE5D4E0DEBFCDBF29
:100060000E943A000C9460000C9400005D9BFECF4F
:100070008CB908950F931F93CF93DF9383B789664D
:1000800083BFBB9A8AB188618AB910BC83E389B9FE
:100090008898899A01E010E0C0E0D0E0CCBFC00FA2
:1000A000D11FCF3FD10511F0209719F4109501957C
:1000B0001F4F8C2F0E9436008AE00E943600EECF40
:0400C000F894FFCFE2
:00000001FF
