:100000000C942A000C9447000C9447000C94470071
:100010000C9447000C9447000C9447000C94470044
:100020000C9447000C9447000C9447000C946F000C
:100030000C9447000C9447000C9447000C94470024
:100040000C9447000C9447000C9447000C94470014
:100050000C94470011241FBECFE5D4E0DEBFCDBF16
:1000600010E0A0E6B0E0E2E7F1E002C005900D92FA
:10007000A436B107D9F710E0A4E6B0E001C01D92A4
:10008000AA37B107E1F70E944D000C94B7000C9419
:1000900000005D9BFECF8CB908958AB188618AB952
:1000A00010BC83E389B98898899A579A7894789490
:1000B00060E670E086E690E00E94AE00892B11F4C5
:1000C000979A01C09798C6E6D0E002C00E94490006
:1000D00089918111FBCF8AE00E944900E9CF1F92EC
:1000E0000F920FB60F9211242F938F939F93EF933C
:1000F000FF935F9BFECF2CB18091640090916500CF
:10010000439759F41092650010926400E0916400E6
:10011000F0916500EA59FF4F108280916400909140
:100120006500FC01EA59FF4F20830196909365001A
:1001300080936400E0916400F0916500EA59FF4FFC
:10014000108282B3805882BBFF91EF919F918F9173
:100150002F910F900FBE0F901F901895FB01DC019F
:100160008D91019080190110D9F3990B0895F8949D
:02017000FFCFBF
:040172006C65640054
:00000001FF
