:1000000012C019C018C017C016C015C014C013C044
:1000100012C011C010C00FC00EC00DC00CC00BC06C
:100020000AC009C008C011241FBECFE5D4E0DEBF5E
:10003000CDBF4CD062C0E4CFCF93DF9300D000D0CF
:1000400000D0CDB7DEB76B837C838D839E8388E33E
:1000500090E028E330E0F90120812F7EFC0120832D
:1000600087E090E09A83898312C088E390E028E3D8
:1000700030E0F90120812B7FFC01208388E390E0B0
:1000800028E330E0F90120812460FC01208321E095
:1000900089819A81009709F420E089819A810197EA
:1000A0009A838983222309F788E390E028E330E0EC
:1000B000F90120812061FC01208326960FB6F89477
:1000C000DEBF0FBECDBFDF91CF910895CF93DF93F9
:1000D0001F92CDB7DEB78FEF898387E390E02FEFD4
:1000E000FC01208388E390E02FEFFC01208360EF88
:0E00F00070E080E090E0A0DFFACFF894FFCF40
:00000001FF
