:100000000C942B000C9453000C9453000C9453004C
:100010000C9453000C9453000C9453000C94530014
:100020000C9453000C9453000C9453000C94530004
:100030000C9453000C9453000C9453000C945300F4
:100040000C9453000C9453000C9453000C945300E4
:100050000C945300D20211241FBECFE5D4E0DEBFC2
:10006000CDBF12E0A0E6B0E0E0E2FCE002C0059007
:100070000D92AE3EB107D9F713E0AEEEB2E001C08B
:100080001D92A134B107E1F710E0C6E5D0E004C04D
:100090002297FE010E94E402C435D107C9F70E94ED
:1000A00099020C940E060C9400008BB31BBA4130DD
:1000B000510579F49598969A6BBB949A8AE18A9542
:1000C000F1F700C094988AE18A95F1F700C0949AFC
:1000D00008954115510571F4959896986BBB949AC3
:1000E0008AE18A95F1F700C094988AE18A95F1F740
:1000F00000C0949A0895CF93DF93EC0162EE40E044
:1001000050E00E9455008FEF99E6A8E181509040A1
:10011000A040E1F700C00000CE0161EA40E050E0FD
:100120000E945500CE0162EA40E050E00E94550076
:10013000CE016CE240E050E00E945500CE016EE23C
:1001400040E050E00E945500CE016FE240E050E0F8
:100150000E945500CE0166EA40E050E00E94550042
:10016000CE016FE840E050E00E945500CE0164EA05
:1001700040E050E00E945500CE016FEA40E050E0C0
:100180000E945500CE0160E440E050E00E9455001E
:10019000DF91CF91089521B3286721BB2FEF2ABBB0
:1001A00093982FEF30E742E0215030404040E1F794
:1001B00000C00000939A2FEF30E742E0215030401A
:1001C0004040E1F700C000000E947B008FEF90E705
:1001D000A2E081509040A040E1F700C000000895E7
:1001E000605840E050E00E9455000895FF920F9340
:1001F0001F93CF93DF93EC01042F6150663030F4EE
:10020000E62FF0E0E951FD4F108101C010E0F12E22
:10021000F2948FE0F822CE0166EB40E050E00E94BD
:1002200055006F2D6061CE0140E050E00E94550006
:10023000612F6F70CE0140E050E00E945500CE016A
:10024000602F41E050E00E945500DF91CF911F9157
:100250000F91FF90089521E062276A5540E050E039
:100260000E9455000895CF93DF93EC0160E140E0D8
:1002700050E00E945500CE0160E040E050E00E9456
:100280005500DF91CF9108956F927F928F929F9248
:10029000AF92BF92CF92DF92EF92FF920F931F9394
:1002A000DF93CF930F92CDB7DEB78C01E62EA62F4A
:1002B000B72FFD0101900020E9F73197EA1BFB0BF6
:1002C000CE2EDF2E85E1C816D1041CF054E1C52ED8
:1002D000D12CC80160EE40E050E079830E945500C7
:1002E00079818E2C972EAA24BB2425E028C0F40106
:1002F00031914F013052832F90E03C01660C771C06
:10030000660C771C680E791E85E091E0680E791EF8
:10031000329F70011124EAE0F1E0EE0EFF1EF301BE
:1003200061913F01C80141E050E029830E945500DE
:1003300029816E147F0499F70894A11CB11CAC1498
:10034000BD04ACF2C8016EEE40E050E00E945500E2
:10035000C8010E9433010F90CF91DF911F910F913F
:10036000FF90EF90DF90CF90BF90AF909F908F90D5
:100370007F906F9008951F93CF93DF93EC01162F1A
:100380001155612F40E050E00E945500CE0160E120
:1003900040E050E00E945500CE0160E040E050E0B7
:1003A0000E945500CE0160E670E00E944401CE013B
:1003B000612F40E050E00E945500CE0160E140E036
:1003C00050E00E945500CE0160E040E050E00E9405
:1003D0005500DF91CF911F910895969A949A959A1E
:1003E0008FE79AE1A6E081509040A040E1F700C07D
:1003F00000009698949895988FE79AE1A6E081502E
:100400009040A040E1F700C00000089508950895CD
:1004100008950F931F93DF93CF93CDB7DEB7659702
:100420000FB6F894DEBF0FBECDBF00D000D000D015
:10043000EDB7FEB731968E010F5F1F4FADB7BEB758
:1004400012961C930E93119725E730E03383228395
:10045000958384830E9409038DB79EB706960FB6D5
:10046000F8949EBF0FBE8DBF80E493E0B8010E9458
:10047000440165960FB6F894DEBF0FBECDBFCF9195
:10048000DF911F910F910895CF93DF93C0E4D3E0E4
:10049000CE0161E00E94BB01CE016AE870E00E94DB
:1004A0004401CE0162E00E94BB01CE0160EA70E02F
:1004B0000E944401CE0163E00E94BB01CE0166EBC5
:1004C00070E00E944401CE0164E00E94BB01CE01B5
:1004D0006CEC70E00E944401CE0165E00E94BB011B
:1004E000CE016BED70E00E944401CE0166E00E94F7
:1004F000BB01CE0169EE70E00E944401DF91CF9113
:100500000895BC0162557F4F80E493E040E050E0E5
:100510000E9455000895CF93DF93CBE2D3E090E0A3
:10052000BE0142E050E00E94E802CE01DF91CF918F
:1005300008950F931F93DF93CF93CDB7DEB76597E1
:100540000FB6F894DEBF0FBECDBF80E493E061E04C
:100550000E94BB018FE00E948B0200D000D000D02F
:10056000EDB7FEB731968E010F5F1F4FADB7BEB727
:1005700012961C930E9311972AEF30E03383228357
:10058000958384830E9409038DB79EB706960FB6A4
:10059000F8949EBF0FBE8DBF80E493E0B8010E9427
:1005A0004401FFCF8091E5029091E60263E09695C9
:1005B00087956A95E1F78093EE0280E493E00E94CC
:1005C000CB000895EE0FFF1F0590F491E02D0994E4
:1005D000FB019F01E8944230C4F04532B4F44A3044
:1005E00029F497FB1EF4909581959F4F642F7727F0
:1005F0000E94C305805D8A330CF0895D8193CB0135
:100600000097A1F716F45DE251931082C9010C9492
:100610002905AEE0B0E0EFE0F3E00C94E5050D89CC
:100620001E8986E08C831A8309838FEF9FE79E8360
:100630008D839E01275E3F4FCE0101966F89788D95
:10064000A9010E942C03EF81F885E00FF11F1082B1
:100650002E96E4E00C940106ACE0B0E0E2E3F3E0B7
:100660000C94D7056C011B018A01FC0117821682CC
:10067000838181FFD1C12E010894411C511CF601D8
:100680009381F10193FD859193FF81911F0188234F
:1006900009F4BEC1853239F493FD859193FF8191B0
:1006A0001F01853229F490E0B6010E943905E7CF99
:1006B000EE24FF2420E02032B0F48B3269F08C323B
:1006C00028F4803251F0833271F40BC08D3239F04E
:1006D000803349F421602CC02260246029C0286046
:1006E00027C0206125C027FD2CC0382F30533A3059
:1006F00098F426FF08C08E2D880FE82EEE0CEE0C25
:10070000E80EE30E15C08F2D880FF82EFF0CFF0C9E
:10071000F80EF30E20620CC08E3221F426FD78C153
:10072000206406C08C3611F4206802C0883649F473
:10073000F10193FD859193FF81911F01882309F0B9
:10074000BACF982F9554933018F09052933028F4E4
:100750000C5F1F4FFFE3F9830DC0833631F0833701
:1007600071F0833509F060C022C0F801808189836F
:100770000E5F1F4F420171E0A72EB12C16C062E040
:10078000662E712C600E711EF8018080918026FF0C
:1007900003C06E2D70E002C06FEF7FEFC4012C87A5
:1007A0000E941E055C0183012C852F7717C052E043
:1007B000652E712C600E711EF8018080918026FFDD
:1007C00003C06E2D70E002C06FEF7FEFC4012C8775
:1007D0000E9413055C012C852068830123FD20C045
:1007E00008C080E290E0B6012C870E943905FA9497
:1007F0002C858F2D90E0A816B90698F311C0F4014E
:1008000027FD859127FF81914F0190E0B6012C874C
:100810000E9439052C85F110FA940894A108B108BA
:10082000A114B10461F7F1C0843611F0893649F59D
:1008300027FF08C0F80160817181828193810C5F7C
:100840001F4F09C0F80160817181882777FD80956D
:10085000982F0E5F1F4F4FE6B42EB22297FF09C0AC
:1008600090958095709561957F4F8F4F9F4FF0E8E1
:10087000BF2AA2012AE030E00E946505782E741894
:1008800045C0853731F43FEEB32EB2222AE030E086
:1008900025C099EFB92EB2228F36C1F0803720F4EF
:1008A000883509F0B5C00DC0803721F0883709F0D0
:1008B000AFC002C020E1B22AB4FE0BC084E0B82A67
:1008C00008C0B4FE09C0E6E0BE2A06C028E030E059
:1008D00005C020E130E002C020E132E0B7FE08C0F0
:1008E000F80160817181828193810C5F1F4F07C085
:1008F000F8016081718180E090E00E5F1F4FA201DE
:100900000E946505782E7418FFE7BF22B6FE0BC063
:100910002EEFB2227E1438F4B4FE07C0B2FC05C03C
:100920008FEEB82202C0A72C01C0AE2C8B2D90E018
:10093000B4FE0DC0FE01E70DF11D2081203319F436
:10094000E9EEBE2209C0A394B2FE06C004C08678B8
:100950009070009709F0A3948B2C9924B3FC14C0D9
:10096000B0FE0FC0AF1428F4E72CEF0CEA18AF2C40
:1009700008C0E72C06C080E290E0B6010E9439056D
:10098000A394AF14C0F304C0AF1410F4FA1801C05C
:10099000FF2484FE0FC080E390E0B6010E94390579
:1009A00082FE1FC081FE03C088E590E010C088E78A
:1009B00090E00DC0C40186789070009791F081FCA2
:1009C00002C080E201C08BE2B7FC8DE290E0B6018C
:1009D0000E94390506C080E390E0B6010E94390507
:1009E000EA947E14C0F37A94F201E70DF11D808140
:1009F00090E0B6010E9439057720A9F706C080E291
:100A000090E0B6010E943905FA94FF20C1F737CE75
:100A1000F6012681378102C02FEF3FEFC9012C96E6
:100A2000E2E10C94F305FC01059061507040011067
:100A3000D8F7809590958E0F9F1F0895FC01615007
:100A4000704001900110D8F7809590958E0F9F1FF0
:100A50000895DC01FC01672F71917723E1F732974C
:100A600004C07C916D9370836291AE17BF07C8F389
:100A700008950F931F93CF93DF938C01EB018B812C
:100A800081FF1BC082FF0DC02E813F818C819D8123
:100A90002817390764F4E881F9810193F983E88321
:100AA00006C0E885F985802F0995009731F48E817D
:100AB0009F8101969F838E8302C00FEF1FEFC801B5
:100AC000DF91CF911F910F910895FA01AA27283045
:100AD00051F1203181F1E8946F936E7F6E5F7F4F0B
:100AE0008F4F9F4FAF4FB1E03ED0B4E03CD0670F87
:100AF000781F891F9A1FA11D680F791F8A1F911DDA
:100B0000A11D6A0F711D811D911DA11D20D009F429
:100B100068943F912AE0269F11243019305D31936B
:100B2000DEF6CF010895462F4770405D4193B3E054
:100B30000FD0C9F7F6CF462F4F70405D4A3318F0FB
:100B4000495D31FD4052419302D0A9F7EACFB4E0AC
:100B5000A6959795879577956795BA95C9F7009764
:100B60006105710508959B01AC010A2E0694579505
:100B7000479537952795BA95C9F7620F731F841F5C
:100B8000951FA01D0895AA1BBB1B51E107C0AA1FFA
:100B9000BB1FA617B70710F0A61BB70B881F991F1E
:100BA0005A95A9F780959095BC01CD0108952F9293
:100BB0003F924F925F926F927F928F929F92AF92ED
:100BC000BF92CF92DF92EF92FF920F931F93CF933A
:100BD000DF93CDB7DEB7CA1BDB0B0FB6F894DEBFD1
:100BE0000FBECDBF09942A88398848885F846E84F7
:100BF0007D848C849B84AA84B984C884DF80EE8041
:100C0000FD800C811B81AA81B981CE0FD11D0FB649
:100C1000F894DEBF0FBECDBFED010895F894FFCF6D
:100C200020202020202020202020202020202020C4
:100C30002020202000202D3E20436F6E74726173AF
:100C4000743A20256420202020003031323334359E
:100C50003637383930313233343536373839300079
:100C60004142434445464748494A4B4C4D4E5051FA
:100C70005253545556007778797A61626364656699
:100C80006768696A6B6C6D6E6F707100202021233C
:100C900024252627282029405E2D0020202A2B2DC0
:100CA0002F3C3E3F3B3A5B5D002A2041565220726A
:100CB000756C6573202121202A0068696768657258
:100CC0003A20257300000000000000005F000000D3
:100CD00007000700147F147F14242A7F2A1223138D
:100CE00008646236495522500005030000001C22AA
:100CF00041000041221C00082A1C2A0808083E085E
:100D00000800503000000808080808006060000073
:100D100020100804023E5149453E00427F400042F7
:100D2000615149462141454B311814127F10274526
:100D30004545393C4A49493001710905033649495D
:100D40004936064949291E0036360000005636004D
:100D50000000081422411414141414412214080031
:100D60000201510906324979413E7E1111117E7FFF
:100D7000494949363E414141227F4141221C7F4938
:100D80004949417F090901013E414151327F08082B
:100D9000087F00417F41002040413F017F0814222D
:100DA000417F404040407F0204027F7F0408107F63
:100DB0003E4141413E7F090909063E4151215E7F86
:100DC00009192946464949493101017F01013F403E
:100DD00040403F1F2040201F7F2018207F631408C1
:100DE00014630304780403615149454300007F41C3
:100DF00041020408102041417F0000040201020466
:100E00004040404040000102040020545454787F88
:100E1000484444383844444420384444487F385493
:100E2000545418087E090102081454543C7F0804E5
:100E3000047800447D40002040443D00007F10289D
:100E40004400417F40007C041804787C0804047846
:100E500038444444387C14141408081414187C7C56
:100E6000080404084854545420043F4440203C40A3
:100E700040207C1C2040201C3C4030403C4428103A
:100E800028440C5050503C4464544C4400083641B3
:100E90000000007F0000004136080008082A1C08F6
:0E0EA000081C2A0808A00F141F2039454E0018
:00000001FF
